S01C000049522D4472697665722D46697273742D546573742E73726563D2
S11300000C9434000C9446000C9446000C94460066
S11300100C9446000C9446000C9446000C94460044
S11300200C9446000C9446000C9446000C94460034
S11300300C9446000C9446000C9479000C944600F1
S11300400C9446000C9446000C9446000C94460014
S11300500C9446000C9446000C9446000C94460004
S11300600C9446000C94460011241FBECFEFD8E038
S1130070DEBFCDBF21E0A0E0B1E001C01D92A830F9
S1130080B207E1F70E9448000C94F5000C940000BC
S113009082E084BD87BD85BD80936E0080EF8AB900
S11300A080E284B98BB18F708BB98FED85B91092D2
S11300B0070180910601883131F48BB18F708BB9BF
S11300C08BB180688BB9809106018A3431F48BB18D
S11300D08F708BB98BB180648BB9809106018833A2
S11300E041F78BB18F708BB995B180E2892785B9BF
S11300F0E0CF1F920F920FB60F9211242F933F93CC
S11301004F938F939F93809107018230F1F018F4FD
S1130110813039F060C0833011F1843009F452C069
S11301205AC085B1806285B980910401909105011E
S1130130019690930501809304018C3B944309F04C
S11301404AC082E08093070146C0809104019091E7
S11301500501019690930501809304013CC08091B0
S11301600401909105010196909305018093040187
S11301708091000190910101019690930101809377
S1130180000120910201309103012830310519F456
S113019044E0409307018A3C48E09407E1F48A5C18
S11301A09840909301018093000180910601880F8B
S11301B08160809306012F5F3F4F309303012093AA
S11301C0020109C080910401909105010196909368
S11301D00501809304019F918F914F913F912F913D
S11101E00F900FBE0F901F901895F894FFCF4C
S9030000FC
