:100000000C9434000C9453000C946C000C9451002C
:100010000C9451000C9451000C9451000C9451001C
:100020000C9451000C9451000C9451000C9451000C
:100030000C9451000C9451000C9451000C945100FC
:100040000C9451000C9451000C9451000C945100EC
:100050000C9451000C9451000C9451000C945100DC
:100060000C9451000C94510011241FBECFEFD8E026
:10007000DEBFCDBF11E0A0E0B1E0E0E4F1E002C0FE
:1000800005900D92A230B107D9F721E0A2E0B1E0CE
:1000900001C01D92A230B207E1F70E9485000C94C6
:1000A0009E000C9400001F920F920FB60F92112425
:1000B0008F9380910001882324F480E180930001D4
:1000C00005C080910001880F809300018F910F90EF
:1000D0000FBE0F901F9018951F920F920FB60F92A0
:1000E00011248F9380910001813120F480E8809366
:1000F000000105C0809100018695809300018F91D9
:100100000F900FBE0F901F9018958AB1837F8AB908
:100110008AB1806F8AB98CE08BB9E9E6F0E0808122
:100120008A60808383E08DBB78948BB18F708BB9AC
:10013000909100018BB1892B8BB9F7CFF894FFCF49
:020140001000AD
:00000001FF
