S0160000496E746572727570745F746573742E7372656322
S11300000C9434000C9453000C9474000C94510020
S11300100C9451000C9451000C9451000C94510018
S11300200C9451000C9451000C9451000C94510008
S11300300C9451000C9451000C9451000C945100F8
S11300400C9451000C9451000C9451000C945100E8
S11300500C9451000C9451000C9451000C945100D8
S11300600C9451000C94510011241FBECFEFD8E022
S1130070DEBFCDBF11E0A0E0B1E0EAE8F1E002C0EC
S113008005900D92A230B107D9F721E0A2E0B1E0CA
S113009001C01D92A430B207E1F70E9495000C94B0
S11300A0C3000C9400001F920F920FB60F921124FC
S11300B08F939F9380910001813820F080E1809399
S11300C0000105C080910001880F8093000181E048
S11300D090E090930301809302019F918F910F9080
S11300E00FBE0F901F9018951F920F920FB60F928C
S11300F011248F939F9380910001813120F480E833
S11301008093000105C080910001869580930001D1
S113011081E090E090930301809302019F918F917D
S11301200F900FBE0F901F9018958AB1837F8AB9E4
S11301308AB1806F8AB98CE08BB9E9E6F0E08081FE
S11301408A60808383E08DBB8BB18F708BB9809183
S1130150020190910301892B11F478940EC0F89454
S11301602FEF83ED90E3215080409040E1F700C0F1
S113017000001092030110920201909100018BB1D2
S10D0180892B8BB9E4CFF894FFCF6C
S105018A10005F
S9030000FC
