:100000000C9448000C9458000C9458000C94C803AD
:100010000C9458000C9458000C94A2030C945800B3
:100020000C9458000C9458000C9458000C945800F0
:100030000C9458000C9458000C9458000C945800E0
:100040000C9458000C9458000C9458000C945800D0
:100050000C9458000C9458000C9458000C945800C0
:100060000C9458000C9458000C9458000C945800B0
:100070000C9458000C9458000C9458000C945800A0
:100080000C9458000C9458000C9458000C94580090
:1000900011241FBECFEFCDBFDFE3DEBF2CE3A0E016
:1000A000BCE301C01D92AF31B207E1F737D31BC4E7
:1000B000A7CF7894E0E0F4E087E280838FEF848339
:1000C000A0E6B4E084E78C9314961C9214978C916C
:1000D00080688C9314968C9114978F7714968C93D8
:1000E0008081877F808383898360838B8FB78068DB
:1000F0008FBF789410921D3C1092183C10921E3CB9
:1001000010924701809141018111FCCFE0E4F1E0C0
:1001100084E090E08287938782818160828381E896
:10012000808308958091063C9091073CA091083C03
:10013000B091093C882799270097A646B14811F449
:1001400081E0089580E0089510920C3C10920D3CDF
:1001500010920E3C10920F3C8091043C9091053C13
:1001600001968093043C9093053C8091193C823029
:1001700018F481E08093193C0895E0E0F4E083896D
:10018000138A0895E0E0F4E083898360838B109202
:100190004801109249010895E0E4F1E010861186CB
:1001A00082818E7F828310920C3C10920D3C1092C3
:1001B0000E3C10920F3C0895E0E4F1E082818160F2
:1001C0008283089580911D3C823001F128F48823B8
:1001D00041F0813061F045C0833039F18430A1F1C4
:1001E00040C08FEF80930404109264040895E0E00F
:1001F000F4E08FEF848384818E7F8483E0E6F4E0F3
:10020000848184838481806484830895E0E0F4E0C1
:100210008FEF848384818A7F8483E0E6F4E08481A5
:1002200084838481806284830895E0E0F4E08FEF2A
:1002300084838481887F8483E0E6F4E084818483FE
:100240008481806184830895E0E0F4E08FEF84830B
:100250008481887D8483E0E6F4E084818460848303
:10026000089581E080931D3C08958091193C82306F
:10027000A1F018F4882331F00895843011F186300C
:10028000A1F1089580911D3C811104C081E080930B
:100290001D3C089510921D3C089580911D3C8130B5
:1002A00021F482E080931D3C0895823021F483E0A4
:1002B00080931D3C0895833011F584E080931D3CAC
:1002C000089580911D3C843021F483E080931D3C8F
:1002D0000895833021F482E080931D3C089582309C
:1002E00071F481E080931D3C08958091183C811148
:1002F00004C081E08093183C08951092183C089542
:100300008091063C9091073CA091083CB091093C3B
:10031000AA27BB278E379148A105B10529F4109271
:10032000193CA3DF4FDF08958091063C9091073C74
:10033000A091083CB091093CAA27BB278E3A914571
:10034000A105B10531F484E08093193C8EDF3ADFDA
:1003500008958091063C9091073CA091083CB09193
:10036000093CAA27BB278E35914AA105B10531F476
:1003700082E08093193C79DF25DF08958091063C67
:100380009091073CA091083CB091093CAA27BB275B
:1003900086369949A105B10529F486E08093193C78
:1003A00064DF10DF089580911E3C823021F083309D
:1003B00009F4ABC1089581E090E08093123C9093E2
:1003C000133CF89410924801109249017894D5DEBC
:1003D0008091080483FD10C02091143C3091153C9D
:1003E0004091163C5091173CAAE7B0E066D26932C2
:1003F00073428105910564F31092143C1092153CF0
:100400001092163C1092173CF894109248011092EA
:10041000490178948091080483FF10C02091143C16
:100420003091153C4091163C5091173CAAE7B0E042
:1004300044D2653971418105910564F32091143CE2
:100440003091153C4091163C5091173CAAE7B0E022
:1004500034D26D3F7840810591050CF041C0109277
:10046000143C1092153C1092163C1092173C94DEEE
:10047000A3DEF894109248011092490178941092EA
:10048000143C1092153C1092163C1092173C80912F
:10049000080483FD10C02091143C3091153C40911C
:1004A000163C5091173CAAE7B0E007D2693572407C
:1004B0008105910564F348DE1092143C1092153CBE
:1004C0001092163C1092173C1092123C1092133C62
:1004D000F8941092480110924901789453DE0895DF
:1004E000F894109248011092490178941092143CAB
:1004F0001092153C1092163C1092173C1092123C30
:100500001092133C81E090E08093103C9093113C5A
:1005100010921B3C10921C3CCAC010920C3C1092D2
:100520000D3C10920E3C10920F3C8091080483FD0C
:1005300010C020910C3C30910D3C40910E3C5091EC
:100540000F3CAAE7B0E0B9D16B3872408105910544
:1005500064F310920C3C10920D3C10920E3C1092E1
:100560000F3C1ADE29DE8091080483FF10C0209121
:100570000C3C30910D3C40910E3C50910F3CAAE751
:10058000B0E09BD1693077408105910564F380919B
:100590001B3C90911C3C809789F420910C3C30913D
:1005A0000D3C40910E3C50910F3CAAE7B0E085D144
:1005B000693E7340810591050CF080C020910C3C90
:1005C00030910D3C40910E3C50910F3CAAE7B0E0B9
:1005D00074D1693E734081059105B4F18091063C68
:1005E0009091073CA091083CB091093C880F991F5D
:1005F000AA1FBB1F8093063C9093073CA093083C26
:10060000B093093C8091063C9091073CA091083C36
:10061000B091093C81608093063C9093073CA09385
:10062000083CB093093C80910C3C90910D3CA0910A
:100630000E3CB0910F3C80930C3C90930D3CA093EA
:100640000E3CB0930F3C24C08091063C9091073C37
:10065000A091083CB091093C880F991FAA1FBB1FAD
:100660008093063C9093073CA093083CB093093CD0
:1006700080910C3C90910D3CA0910E3CB0910F3CB0
:1006800080930C3C90930D3CA0930E3CB0930F3C98
:10069000F8941092480110924901789480911B3C83
:1006A00090911C3C019680931B3C90931C3C809144
:1006B0001B3C90911C3C81970CF42FCF33DD8111B2
:1006C0001FDE8091080483FF10C02091143C3091FC
:1006D000153C4091163C5091173CAAE7B0E0EDD094
:1006E00061327E448105910564F310920C3C1092B6
:1006F0000D3C10920E3C10920F3CF8941092480161
:100700001092490178943EDD08951092143C1092A5
:10071000153C1092163C1092173C089588ED84BF4A
:10072000E0E6F0E0128284BF118284BF81E0828320
:10073000E0E6F4E082E08083148283E0809313019A
:10074000B8DCFFCF1F920F920FB60F9211242F9398
:100750003F934F935F936F937F938F939F93AF9349
:10076000BF93EF93FF9382E080931E3C1CDEFF91CA
:10077000EF91BF91AF919F918F917F916F915F9119
:100780004F913F912F910F900FBE0F901F90189592
:100790001F920F920FB60F9211242F933F934F93F6
:1007A0005F936F937F938F939F93AF93BF93EF93D9
:1007B000FF9381E0809343018091123C9091133C20
:1007C000019799F48091143C9091153CA091163CAE
:1007D000B091173C0196A11DB11D8093143C9093DC
:1007E000153CA093163CB093173C8091103C90911F
:1007F000113C0197E1F480910C3C90910D3CA0914B
:100800000E3CB0910F3C0196A11DB11D80930C3C94
:1008100090930D3CA0930E3CB0930F3C80910A3C0A
:1008200090910B3C019680930A3C90930B3C8091F5
:100830001D3C843089F58091003C9091013CA09151
:10084000023CB091033C0196A11DB11D8093003C78
:100850009093013CA093023CB093033C2091003C58
:100860003091013C4091023C5091033CAAE7B0E03A
:1008700024D0603472448F40910574F0E0E0F4E0DD
:10088000948180E2892784831092003C1092013C7D
:100890001092023C1092033CFF91EF91BF91AF91F7
:1008A0009F918F917F916F915F914F913F912F9188
:1008B0000F900FBE0F901F90189509D0A59F900D17
:1008C000B49F900DA49F800D911D11240895A29FA7
:1008D000B001B39FC001A39F01D0B29F700D811DD5
:0A08E0001124911D0895F894FFCF34
:00000001FF
