S01700004B756172746973486F6D65776F726B2E73726563DE
S11300000C9448000C9458000C9458000C94B803B9
S11300100C9458000C9458000C9492030C945800BF
S11300200C9458000C9458000C9458000C945800EC
S11300300C9458000C9458000C9458000C945800DC
S11300400C9458000C9458000C9458000C945800CC
S11300500C9458000C9458000C9458000C945800BC
S11300600C9458000C9458000C9458000C945800AC
S11300700C9458000C9458000C9458000C9458009C
S11300800C9458000C9458000C9458000C9458008C
S113009011241FBECFEFCDBFDFE3DEBF2CE3A0E012
S11300A0BCE301C01D92A931B207E1F727D3C6C34F
S11300B0A7CF7894E0E0F4E087E280838FEF848335
S11300C0A0E6B4E084E78C9314961C9214978C9168
S11300D080688C9314968C9114978F7714968C93D4
S11300E08081877F808383898360838B8FB78068D7
S11300F08FBF78941092173C1092123C1092183CC7
S113010010924701809141018111FCCFE0E4F1E0BC
S113011084E090E08287938782818160828381E892
S1130120808308958091003C9091013CA091023C11
S1130130B091033C882799270097A646B14811F44B
S113014081E0089580E008951092063C1092073CE7
S11301501092083C1092093C0895E0E0F4E0838991
S1130160138A0895E0E0F4E083898360838B10921E
S11301704801109249010895E0E4F1E010861186E7
S113018082818E7F82831092063C1092073C1092EB
S1130190083C1092093C0895E0E4F1E0828181601A
S11301A0828308958091173C823001F128F48823DA
S11301B041F0813061F045C0833039F18430A1F1E0
S11301C040C08FEF80930404109264040895E0E02B
S11301D0F4E08FEF848384818E7F8483E0E6F4E00F
S11301E0848184838481806484830895E0E0F4E0DE
S11301F08FEF848384818A7F8483E0E6F4E08481C2
S113020084838481806284830895E0E0F4E08FEF46
S113021084838481887F8483E0E6F4E0848184831A
S11302208481806184830895E0E0F4E08FEF848327
S11302308481887D8483E0E6F4E08481846084831F
S1130240089581E08093173C08958091133C823097
S1130250A1F018F4882331F00895843011F1863028
S1130260A1F108958091173C811104C081E080932D
S1130270173C08951092173C08958091173C8130E3
S113028021F482E08093173C0895823021F483E0C6
S11302908093173C0895833011F584E08093173CD4
S11302A008958091173C843021F483E08093173CB7
S11302B00895833021F482E08093173C08958230BE
S11302C071F481E08093173C08958091123C811170
S11302D004C081E08093123C08951092123C08956A
S11302E08091003C9091013CA091023CB091033C70
S11302F0AA27BB278E379148A105B10529F410928E
S1130300133CA3DF4FDF08958091003C9091013CA2
S1130310A091023CB091033CAA27BB278E3A914599
S1130320A105B10531F484E08093133C8EDF3ADFFC
S113033008958091003C9091013CA091023CB091C1
S1130340033CAA27BB278E35914AA105B10531F498
S113035082E08093133C79DF25DF08958091003C8F
S11303609091013CA091023CB091033CAA27BB2789
S113037086369949A105B10529F486E08093133C9A
S113038064DF10DF08958091183C823021F08330BF
S113039009F4ABC1089581E090E080930C3C909304
S11303A00D3CF89410924801109249017894D5DEDE
S11303B08091080483FD10C020910E3C30910F3CC5
S11303C04091103C5091113CAAE7B0E021D269322F
S11303D073428105910564F310920E3C10920F3C18
S11303E01092103C1092113CF89410924801109213
S11303F0490178948091080483FF10C020910E3C39
S113040030910F3C4091103C5091113CAAE7B0E070
S1130410FFD1653971418105910564F320910E3C4A
S113042030910F3C4091103C5091113CAAE7B0E050
S1130430EFD16D3F7840810591050CF041C01092D9
S11304400E3C10920F3C1092103C1092113C94DE22
S1130450A3DEF89410924801109249017894109206
S11304600E3C10920F3C1092103C1092113C809163
S1130470080483FD10C020910E3C30910F3C409144
S1130480103C5091113CAAE7B0E0C2D169357240EA
S11304908105910564F358DE10920E3C10920F3CD6
S11304A01092103C1092113C10920C3C10920D3C96
S11304B0F8941092480110924901789453DE0895FB
S11304C0F8941092480110924901789410920E3CCD
S11304D010920F3C1092103C1092113C10920C3C64
S11304E010920D3C81E090E080930A3C90930B3C89
S11304F01092153C1092163CCAC01092063C109201
S1130500073C1092083C1092093C8091080483FD3A
S113051010C02091063C3091073C4091083C50911A
S1130520093CAAE7B0E074D16B38724081059105AB
S113053064F31092063C1092073C1092083C10920F
S1130540093C1ADE29DE8091080483FF10C0209143
S1130550063C3091073C4091083C5091093CAAE785
S1130560B0E056D1693077408105910564F38091FC
S1130570153C9091163C809789F42091063C30916B
S1130580073C4091083C5091093CAAE7B0E040D1B7
S1130590693E7340810591050CF080C02091063CB2
S11305A03091073C4091083C5091093CAAE7B0E0E7
S11305B02FD1693E734081059105B4F18091003CCF
S11305C09091013CA091023CB091033C880F991F8B
S11305D0AA1FBB1F8093003C9093013CA093023C54
S11305E0B093033C8091003C9091013CA091023C6B
S11305F0B091033C81608093003C9093013CA093B4
S1130600023CB093033C8091063C9091073CA0913E
S1130610083CB091093C8093063C9093073CA0931E
S1130620083CB093093C24C08091003C9091013C6B
S1130630A091023CB091033C880F991FAA1FBB1FD5
S11306408093003C9093013CA093023CB093033C04
S11306508091063C9091073CA091083CB091093CE4
S11306608093063C9093073CA093083CB093093CCC
S1130670F894109248011092490178948091153CA5
S11306809091163C01968093153C9093163C809172
S1130690153C9091163C81970CF42FCF43DD8111CA
S11306A01FDE8091080483FF10C020910E3C30911E
S11306B00F3C4091103C5091113CAAE7B0E0A8D007
S11306C061327E448105910564F31092063C1092D8
S11306D0073C1092083C1092093CF894109248018F
S11306E01092490178943EDD089510920E3C1092C8
S11306F00F3C1092103C1092113C089588ED84BF79
S1130700E0E6F0E0128284BF118284BF81E082833C
S1130710E0E6F4E082E08083148283E080931301B6
S1130720C8DCFFCF1F920F920FB60F9211242F93A4
S11307303F934F935F936F937F938F939F93AF9365
S1130740BF93EF93FF9382E08093183C1CDEFF91EC
S1130750EF91BF91AF919F918F917F916F915F9135
S11307604F913F912F910F900FBE0F901F901895AE
S11307701F920F920FB60F9211248F939F93AF93F2
S1130780BF9381E08093430180910C3C90910D3C98
S1130790019799F480910E3C90910F3CA091103CEC
S11307A0B091113C0196A11DB11D80930E3C909314
S11307B00F3CA093103CB093113C80910A3C909163
S11307C00B3C0197E1F48091063C9091073CA09189
S11307D0083CB091093C0196A11DB11D8093063CD3
S11307E09093073CA093083CB093093C8091043C4F
S11307F09091053C01968093043C9093053CBF91F5
S1130800AF919F918F910F900FBE0F901F901895ED
S113081009D0A59F900DB49F900DA49F800D911DAC
S113082011240895A29FB001B39FC001A39F01D0DA
S1130830B29F700D811D1124911D0895F894FFCF6E
S9030000FC
