:100000000C9448000C9458000C9458000C94580020
:100010000C9458000C9458000C9458000C94580000
:100020000C9458000C9458000C9458000C945800F0
:100030000C9458000C9458000C9458000C945800E0
:100040000C9458000C9458000C9458000C945800D0
:100050000C9458000C9458000C9458000C945800C0
:100060000C9458000C9458000C9458000C945800B0
:100070000C9458000C9458000C9458000C945800A0
:100080000C9458000C9458000C9458000C94580090
:1000900011241FBECFEFCDBFDFE3DEBF2CE3A0E016
:1000A000BCE301C01D92A330B207E1F7ECD0EEC073
:1000B000A7CFE0E0F4E087E280838FEF8483E0E67F
:1000C000F4E084E7808314821092023C1092003C9A
:1000D00008958091023C823001F128F4882341F098
:1000E000813061F045C0833039F18430A1F140C0E6
:1000F0008FEF80930404109264040895E0E0F4E02C
:100100008FEF848384818E7F8483E0E6F4E08481B2
:1001100084838481806484830895E0E0F4E08FEF39
:10012000848384818A7F8483E0E6F4E0848184830D
:100130008481806284830895E0E0F4E08FEF84831B
:100140008481887F8483E0E6F4E0848184838481F1
:10015000806184830895E0E0F4E08FEF84838481FC
:10016000887D8483E0E6F4E084818460848308955C
:1001700081E08093023C08958091013C8230A1F09F
:1001800018F4882331F00895843011F18630A1F1FC
:1001900008958091023C811104C081E08093023C6B
:1001A00008951092023C08958091023C813021F420
:1001B00082E08093023C0895823021F483E08093B2
:1001C000023C0895833011F584E08093023C089549
:1001D0008091023C843021F483E08093023C0895B6
:1001E000833021F482E08093023C0895823071F4E0
:1001F00081E08093023C08958091003C811104C00D
:1002000081E08093003C08951092003C0895CF93C4
:10021000DF931092013CB0DF5CDFD2E0D093013C71
:10022000ABDF57DFD093013CA7DF53DFC4E0C093BF
:10023000013CA2DF4EDF86E08093013C9DDF49DF79
:10024000D093013C99DF45DFD093013C95DF41DF3E
:10025000D093013C91DF3DDFC093013C8DDF39DF5E
:10026000C093013C89DF35DFC093013C85DF31DF7E
:10027000C093013C81DF2DDF1092013C7DDF29DF3F
:10028000DF91CF91089515DFC2DFFFCFF894FFCF44
:00000001FF
