S01700004B756172746973486F6D65776F726B2E73726563DE
S11300000C947D000C948D000C948D000C94F506DA
S11300100C948D000C948D000C94CF060C948D00E0
S11300200C948D000C948D000C948D000C948D0018
S11300300C948D000C948D000C948D000C948D0008
S11300400C948D000C94C2090C948D000C94B80986
S11300500C948D000C948D000C948D000C948D00E8
S11300600C948D000C948D000C948D000C948D00D8
S11300700C948D000C948D000C948D000C948D00C8
S11300800C948D000C948D000C948D000C948D00B8
S11300905DC09CC0DBC0EAC001C118C12EC13DC116
S11300A05FC164C169C16EC173C178C17DC182C1C0
S11300B087C18CC1A2C1A5C1A8C1ABC1AEC1B1C128
S11300C0B4C1B7C1BAC1C9C1CBC1CEC1D1C1D4C1F8
S11300D0D7C1DAC1DDC1E0C194C2A1C2AFC2BDC201
S11300E0D3C2DFC2E0C2CEC5D1C5D4C5D7C5DAC537
S11300F0DDC5E0C5E3C5E6C5E9C511241FBECFEFE4
S1130100CDBFDFE3DEBF2CE3A0E0BCE301C01D9262
S1130110AF34B207E1F740D9A1C972CF81E090E0D2
S1130120A0E0B0E08093403C9093413CA093423CDB
S1130130B093433CE0914E3C8E2F90E08830910583
S113014008F001C1FC01E85BFF4F099480913C3C3D
S113015090913D3CA0913E3CB0913F3C80FD11C04C
S11301608091383C9091393CA0913A3CB0913B3C11
S11301700197A105B10529F4E0E6F4E084818058F3
S1130180848360913C3C70913D3C80913E3C9091D5
S11301903F3C2AE030E040E050E000D9672B682B78
S11301A0692B09F0D0C08091383C9091393CA091E2
S11301B03A3CB0913B3C892B8A2B8B2B09F0C3C072
S11301C0E0E6F4E0848180588483089580913C3C87
S11301D090913D3CA0913E3CB0913F3C80FD11C0CC
S11301E08091383C9091393CA0913A3CB0913B3C91
S11301F0892B8A2B8B2B29F4E0E6F4E08481805848
S1130200848360913C3C70913D3C80913E3C909154
S11302103F3C2AE030E040E050E0C0D8672B682B38
S1130220692B09F090C08091383C9091393CA091A1
S11302303A3CB0913B3C0197A105B10509F083C05C
S1130240E0E6F4E0848180588483089580913C3C06
S113025090913D3CA0913E3CB0913F3C80FD73C0E9
S1130260E0E6F4E0848180588483089560913C3C06
S113027070913D3C80913E3C90913F3C2AE030E0BF
S113028040E050E08BD8672B682B692B09F05BC0EA
S1130290E0E6F4E0848180588483089560913C3CD6
S11302A070913D3C80913E3C90913F3C24E130E094
S11302B040E050E073D8672B682B692B09F043C0EA
S11302C0E0E6F4E0848180588483089560913C3CA6
S11302D070913D3C80913E3C90913F3C2AE030E05F
S11302E040E050E05BD8672B682B692B61F5E0E6B2
S11302F0F4E0848180588483089580913C3C9091FB
S11303003D3CA0913E3CB0913F3C80FD1CC0E0E6EA
S1130310F4E0848180588483089560913C3C70911A
S11303203D3C80913E3C90913F3C2AE030E040E0EF
S113033050E034D8672B682B692B29F4E0E6F4E00D
S11303408481805884830895E0914B3C8E2F90E003
S11303508A30910508F040C0FC01E05BFF4F09942E
S1130360E0E0F4E084818E7F84830895E0E0F4E0AB
S113037084818B7F84830895E0E0F4E084818A7F24
S113038084830895E0E0F4E084818D7F848308957C
S1130390E0E0F4E084818C7F84830895E0E0F4E07D
S11303A08481897F84830895E0E0F4E08481887FF8
S11303B084830895E0E0F4E084818F7D848308954C
S11303C0E0E0F4E084818E7D84830895E0E0F4E04D
S11303D084818B7D848308958FEF8093040410922D
S11303E064040895E0914B3C8E2F90E08930910590
S11303F038F5FC01E65AFF4F099481E080934B3CA9
S1130400089582E080934B3C089583E080934B3CB5
S1130410089584E080934B3C089585E080934B3CA1
S1130420089586E080934B3C089587E080934B3C8D
S1130430089588E080934B3C089589E080934B3C79
S11304400895E0914B3C8E2F90E0FC013197E93008
S1130450F10528F5ED59FF4F099410924B3C08958E
S113046081E080934B3C089582E080934B3C089557
S113047083E080934B3C089584E080934B3C089543
S113048085E080934B3C089586E080934B3C08952F
S113049087E080934B3C089588E080934B3C08951B
S11304A08091263C9091273CA091283CB091293C16
S11304B0882799270097A646B14811F481E008954A
S11304C080E0089510922C3C10922D3C10922E3C0A
S11304D010922F3C81E090E08093203C9093213C4B
S11304E08091453C823020F481E08093453C08951E
S11304F09EEF980F923020F483E08093453C08955A
S11305009CEF980F923020F485E08093453C089549
S11305108650823018F487E08093453C0895E0E0EB
S1130520F4E08389138A0895E0E0F4E0838983602A
S1130530838B10924801109249010895E0E4F1E0A0
S11305401086118682818E7F828310922C3C1092B9
S11305502D3C10922E3C10922F3C0895E0E4F1E0E3
S113056082818160828308951092640480914C3C5E
S1130570813089F028F08230C9F0833011F12BC02A
S1130580E0E0F4E08FEF848384818A7F848381E0D8
S113059080934C3C0895E0E0F4E08FEF8483848101
S11305A0897F848382E080934C3C0895E0E0F4E00A
S11305B08FEF848384818D7D848383E080934C3C9E
S11305C00895E0E0F4E08FEF848384818E7D84835A
S11305D010924C3C089510924C3CE0E0F4E08FEF14
S11305E0848384818E7D84830895E091493C8E2F99
S11305F090E08730910508F05DC0FC01E459FF4F9D
S113060009948FEF80930404109264041092183CB0
S11306101092193C10921A3C10921B3C0895E0E091
S1130620F4E08FEF848384818E7F8483E0E6F4E0BA
S1130630848184838481806484830895E0E0F4E089
S11306408FEF848384818A7F8483E0E6F4E084816D
S1130650848384818062848308951092183C10926C
S1130660193C10921A3C10921B3CE0E0F4E08FEF2E
S113067084838481887F8483E0E6F4E084818483B6
S11306808481806184830895E0E0F4E08FEF8483C3
S11306908481887D8483E0E6F4E0848184608483BB
S11306A0089562DF08958FEF809304041092640428
S11306B04BDE089581E08093493C08958091453C48
S11306C08230E1F018F4882339F00895843091F1F0
S11306D0863009F44BC008958091493C811107C0CC
S11306E081E08093493C10924E3C18DD08951092AD
S11306F0493C81E080934E3C11DD089582E0809373
S11307004E3C0CDD8091493C813021F482E08093A1
S1130710493C0895823021F483E08093493C089554
S1130720833021F484E08093493C0895863061F558
S113073059DE089583E080934E3CF0DC8091493C7F
S1130740843021F483E08093493C0895833021F47C
S113075082E08093493C0895823021F481E08093C3
S1130760493C0895863081F46CDE08958091443CC0
S1130770811104C081E08093443C02C01092443C47
S113078084E080934E3CCADC08958091263C90918D
S1130790273CA091283CB091293CAA27BB278E373F
S11307A09148A105B10529F41092453C87DF1DDF6E
S11307B008958091263C9091273CA091283CB091CB
S11307C0293CAA27BB278E3A9145A105B10531F4EE
S11307D084E08093453C72DF08DF08958091263CD5
S11307E09091273CA091283CB091293CAA27BB2793
S11307F08E35914AA105B10531F482E08093453CE0
S11308005DDFF3DE08958091263C9091273CA09112
S1130810283CB091293CAA27BB2786369949A105D3
S1130820B10521F486E08093453C48DF089580912A
S11308304A3C823021F0833009F4F7C1089581E005
S113084090E08093323C9093333CF89410924801AA
S113085010924901789463DE8091080483FD10C0EE
S11308602091343C3091353C4091363C5091373C9A
S1130870AAE7B0E0AFD5693273428105910564F30C
S11308801092343C1092353C1092363C1092373C16
S1130890F8941092480110924901789480910804C8
S11308A083FF10C02091343C3091353C4091363C5C
S11308B05091373CAAE7B0E08DD565397141810587
S11308C0910564F32091343C3091353C4091363CA1
S11308D05091373CAAE7B0E07DD56D3F7840810563
S11308E091050CF041C01092343C1092353C1092AA
S11308F0363C1092373C22DE31DEF89410924801E7
S11309001092490178941092343C1092353C109224
S1130910363C1092373C8091080483FD10C020912E
S1130920343C3091353C4091363C5091373CAAE7F9
S1130930B0E050D5693572408105910564F3C2DD9C
S11309401092343C1092353C1092363C1092373C55
S11309501092323C1092333CF89410924801109259
S113096049017894E1DD0895F894109248011092B9
S1130970490178941092343C1092353C1092363CE4
S11309801092373C1092323C1092333C81E090E05C
S11309908093303C9093313C1092473C1092483CF9
S11309A0CAC010922C3C10922D3C10922E3C1092F6
S11309B02F3C8091080483FD10C020912C3C309181
S11309C02D3C40912E3C50912F3CAAE7B0E002D53B
S11309D06B3872408105910564F310922C3C10929F
S11309E02D3C10922E3C10922F3CA8DDB7DD809157
S11309F0080483FF10C020912C3C30912D3C409181
S1130A002E3C50912F3CAAE7B0E0E4D46930774003
S1130A108105910564F38091473C9091483C80970F
S1130A2089F420912C3C30912D3C40912E3C5091E6
S1130A302F3CAAE7B0E0CED4693E7340810591050E
S1130A400CF080C020912C3C30912D3C40912E3CE8
S1130A5050912F3CAAE7B0E0BDD4693E73408105B4
S1130A609105B4F18091263C9091273CA091283CBB
S1130A70B091293C880F991FAA1FBB1F8093263C65
S1130A809093273CA093283CB093293C8091263C2A
S1130A909091273CA091283CB091293C816080939F
S1130AA0263C9093273CA093283CB093293C80910A
S1130AB02C3C90912D3CA0912E3CB0912F3C8093E6
S1130AC02C3C90932D3CA0932E3CB0932F3C24C0FF
S1130AD08091263C9091273CA091283CB091293CE0
S1130AE0880F991FAA1FBB1F8093263C9093273C15
S1130AF0A093283CB093293C80912C3C90912D3CB0
S1130B00A0912E3CB0912F3C80932C3C90932D3C93
S1130B10A0932E3CB0932F3CF8941092480110926D
S1130B20490178948091473C9091483C0196809388
S1130B30473C9093483C8091473C9091483C819736
S1130B400CF42FCFADDC811120DE81E090E08093A6
S1130B50323C9093333C1092343C1092353C1092CA
S1130B60363C1092373CF894109248011092490197
S1130B7078948091080483FF10C02091343C309114
S1130B80353C4091363C5091373CAAE7B0E022D442
S1130B906135734C8105910564F32091343C3091A7
S1130BA0353C4091363C5091373CAAE7B0E012D432
S1130BB060347C498105910524F11092203C109207
S1130BC0213C1092223C1092233C1092243C10921F
S1130BD0253C8091453C813019F41092453C11C06C
S1130BE0833021F482E08093453C0BC0853021F4AE
S1130BF084E08093453C05C0873019F486E08093F7
S1130C00453C1092323C1092333C10922C3C109292
S1130C102D3C10922E3C10922F3CF89410924801D7
S1130C2010924901789480DC08951092343C10921B
S1130C30353C1092363C1092373C0895E0E0F4E1E4
S1130C4020813181428153816481758186819781BC
S1130C500895E82F9091021090FDFCCFA0E0B0E140
S1130C6012968C91129718961C92189784E11996F3
S1130C708C938E2F90E08A30910558F5FC01ED5845
S1130C80FF4F099481E08093061023C082E0809393
S1130C9006101FC083E0809306101BC084E080937D
S1130CA0061017C085E08093061013C086E0809379
S1130CB006100FC087E0809306100BC088E0809375
S1130CC0061007C089E08093061003C08AE0809371
S1130CD00610E0E0F0E117828DE984BF81E08083B3
S1130CE0089588ED84BFE0E6F0E0128284BF1182AB
S1130CF084BF81E082830895E0E0F4E087E28083AA
S1130D008FEF84830895E0E6F4E084E7808314821F
S1130D100895E0E6F4E080818068808384818F77A1
S1130D2084830895E0E0F4E08081877F8083838971
S1130D308360838B08951092470180914101811152
S1130D40FCCFE0E4F1E084E090E082879387828145
S1130D508160828381E8808383E080931301089516
S1130D60E0E6F4E082E0808314820895BADFC4DF11
S1130D70CADFD8DFF5DFCDDF8FB780688FBF109271
S1130D80493C1092443C10924A3C88E08093453C94
S1130D9081E080934B3C80934D3CCDDF08951F92BE
S1130DA00F920FB60F9211242F933F934F935F939B
S1130DB06F937F938F939F93AF93BF93EF93FF931F
S1130DC082E080934A3C33DDFF91EF91BF91AF9174
S1130DD09F918F917F916F915F914F913F912F914F
S1130DE00F900FBE0F901F9018951F920F920FB681
S1130DF00F9211242F933F934F935F936F937F939D
S1130E008F939F93AF93BF93EF93FF9381E080936E
S1130E1043018091323C9091333C019799F4809145
S1130E20343C9091353CA091363CB091373C0196CE
S1130E30A11DB11D8093343C9093353CA093363C66
S1130E40B093373C8091303C9091313C0197E1F470
S1130E5080912C3C90912D3CA0912E3CB0912F3C44
S1130E600196A11DB11D80932C3C90932D3CA09321
S1130E702E3CB0932F3C80912A3C90912B3C0196C0
S1130E8080932A3C90932B3C8091493C843009F018
S1130E9058C080911C3C90911D3CA0911E3CB09187
S1130EA01F3C0196A11DB11D80931C3C90931D3CD9
S1130EB0A0931E3CB0931F3C8091183C9091193C28
S1130EC0A0911A3CB0911B3C0196A11DB11D8093C9
S1130ED0183C9093193CA0931A3CB0931B3C20916E
S1130EE01C3C30911D3C40911E3C50911F3CAAE794
S1130EF0B0E070D2603472448F40910570F0E0E04D
S1130F00F4E0948180E28927848310921C3C10923F
S1130F101D3C10921E3C10921F3C2091183C3091B5
S1130F20193C40911A3C50911B3CAAE7B0E052D2C4
S1130F306038734C894C914020F083E08093493CA5
S1130F4054DB8091203C9091213C019709F035C1FC
S1130F508091223C9091233CA091243CB091253C6B
S1130F600196A11DB11D8093223C9093233CA09334
S1130F70243CB093253C2091223C3091233C409169
S1130F80243C5091253CAAE7B0E024D26038744850
S1130F908E419105E0F08091453C8130C1F481E0BF
S1130FA090E0A0E0B0E08093143C9093153CA093B3
S1130FB0163CB093173C85E080934E3CAFD810921A
S1130FC0223C1092233C1092243C1092253C209108
S1130FD0223C3091233C4091243C5091253CAAE78B
S1130FE0B0E0F8D1603874488E419105C0F1809129
S1130FF0453C8730A1F58091143C9091153CA0911B
S1131000163CB091173C892B8A2B8B2B41F5809190
S1131010083C9091093CA0910A3CB0910B3C892B6F
S11310208A2B8B2BE1F486E08093493C81E090E0AD
S1131030A0E0B0E08093083C9093093CA0930A3C64
S1131040B0930B3C87E080934E3C68D8CEDA109284
S1131050223C1092233C1092243C1092253C209177
S1131060223C3091233C4091243C5091253CAAE7FA
S1131070B0E0B0D1603874488E41910508F46DC079
S11310808091453C873009F068C08091143C909170
S1131090153CA091163CB091173C892B8A2B8B2BC5
S11310A009F05BC08091083C9091093CA0910A3CF6
S11310B0B0910B3C0197A105B10509F04EC081E048
S11310C08093493C92DA1092083C1092093C1092A9
S11310D00A3C10920B3C87E080934E3C1FD8109240
S11310E0223C1092233C1092243C1092253C809187
S11310F04B3CAFDDA3DD2093003C3093013C409397
S1131100023C5093033C6093043C7093053C8093F1
S1131110063C9093073C2091003C3091013C409167
S1131120023C5091033C6091043C7091053C8091D9
S1131130063C9091073CA1E057D12093003C3093AA
S1131140013C4093023C5093033C6093043C7093F5
S1131150053C8093063C9093073C2091223C3091BF
S1131160233C4091243C5091253CAAE7B0E032D185
S1131170603472448F40910500F18091453C873082
S1131180E1F48091143C9091153CA091163CB091EF
S1131190173C0197A105B10581F485E08093493C92
S11311A086E080934E3CBAD71092143C1092153CC2
S11311B01092163C1092173C18DA8091403C9091A2
S11311C0413CA091423CB091433C0197A105B1053B
S11311D009F062C080913C3C90913D3CA0913E3C22
S11311E0B0913F3C0196A11DB11D80933C3C90936E
S11311F03D3CA0933E3CB0933F3CE0E6F4E0848168
S1131200806884838BD720913C3C30913D3C409155
S11312103E3C50913F3CAAE7B0E0DCD0603A7648CF
S113122081409105E8F01092403C1092413C1092AC
S1131230423C1092433C10923C3C10923D3C109234
S11312403E3C10923F3C1092383C1092393C109234
S11312503A3C10923B3CE0E6F4E084818F7784834F
S113126020913C3C30913D3C40913E3C50913F3C70
S1131270AAE7B0E0AFD06035734C8105910560F00A
S113128081E090E0A0E0B0E08093383C9093393C5A
S1131290A0933A3CB0933B3C8091493C853061F546
S11312A08091103C9091113CA091123CB091133C60
S11312B00196A11DB11D8093103C9093113CA09305
S11312C0123CB093133C2091103C3091113C40915E
S11312D0123C5091133CAAE7B0E07CD060347244D5
S11312E08F40910548F01092103C1092113C1092DE
S11312F0123C1092133C79D98091493C863039F5DF
S113130080910C3C90910D3CA0910E3CB0910F3C0F
S11313100196A11DB11D80930C3C90930D3CA093AC
S11313200E3CB0930F3C80910C3C90910D3CA091ED
S11313300E3CB0910F3C0A97A105B10541F41092FF
S11313400C3C10920D3C10920E3C10920F3CFF91FD
S1131350EF91BF91AF919F918F917F916F915F9129
S11313604F913F912F910F900FBE0F901F901895A2
S11313701F920F920FB60F9211240F900FBE0F9071
S11313801F9018951F920F920FB60F9211240F9071
S11313900FBE0F901F901895E9DCFFCF052E97FB29
S11313A016F400940FD057FD05D02AD007FC02D0C4
S11313B046F408C050954095309521953F4F4F4FC6
S11313C05F4F089590958095709561957F4F8F4FED
S11313D09F4F089537D0A59F900DB49F900DA49F63
S11313E0800D911D112408950024A7FD00942A0F57
S11313F0301D401D501D601D701D801D901D0895E1
S1131400A1E21A2EAA1BBB1BFD010DC0AA1FBB1F04
S1131410EE1FFF1FA217B307E407F50720F0A21B76
S1131420B30BE40BF50B661F771F881F991F1A94E3
S113143069F760957095809590959B01AC01BD010D
S1131440CF010895A29FB001B39FC001A39F01D013
S1131450B29F700D811D1124911D0895F894FFCF42
S9030000FC
