S01700004B756172746973486F6D65776F726B2E73726563DE
S11300000C9448000C9458000C9458000C9422044E
S11300100C9458000C9458000C94FC030C94580055
S11300200C9458000C9458000C9458000C945800EC
S11300300C9458000C9458000C9458000C945800DC
S11300400C9458000C9458000C9458000C945800CC
S11300500C9458000C9458000C9458000C945800BC
S11300600C9458000C9458000C9458000C945800AC
S11300700C9458000C9458000C9458000C9458009C
S11300800C9458000C9458000C9458000C9458008C
S113009011241FBECFEFCDBFDFE3DEBF2CE3A0E012
S11300A0BCE301C01D92A732B207E1F791D3E7C4C4
S11300B0A7CF7894E0E0F4E087E280838FEF848335
S11300C0A0E6B4E084E78C9314961C9214978C9168
S11300D080688C9314968C9114978F7714968C93D4
S11300E08081877F808383898360838B8FB78068D7
S11300F08FBF78941092253C1092203C1092263C9D
S113010010924701809141018111FCCFE0E4F1E0BC
S113011084E090E08287938782818160828381E892
S11301208083089580910E3C90910F3CA091103CE7
S1130130B091113C882799270097A646B14811F43D
S113014081E0089580E008951092143C1092153CCB
S11301501092163C1092173C81E090E08093083C8A
S11301609093093C8091213C823018F481E0809383
S1130170213C0895E0E0F4E08389138A0895E0E0E7
S1130180F4E083898360838B1092480110924901C3
S11301900895E0E4F1E01086118682818E7F8283E7
S11301A01092143C1092153C1092163C1092173C7D
S11301B00895E0E4F1E08281816082830895809172
S11301C0253C823049F128F4882349F08130A9F094
S11301D056C0833081F1843009F444C050C08FEF9D
S11301E080930404109264041092003C1092013C29
S11301F01092023C1092033C0895E0E0F4E08FEF8B
S1130200848384818E7F8483E0E6F4E08481848324
S11302108481806484830895E0E0F4E08FEF848334
S113022084818A7F8483E0E6F4E08481848384810A
S11302308062848308951092003C1092013C1092D5
S1130240023C1092033CE0E0F4E08FEF848384816D
S1130250887F8483E0E6F4E0848184838481806100
S113026084830895E0E0F4E08FEF84838481887DC3
S11302708483E0E6F4E0848184608483089581E0EB
S11302808093253C08958091213C8230A1F018F49C
S1130290882331F00895843011F18630A1F1089556
S11302A08091253C811104C081E08093253C089510
S11302B01092253C08958091253C813021F482E000
S11302C08093253C0895823021F483E08093253C7B
S11302D00895833011F584E08093253C089580913E
S11302E0253C843021F483E08093253C08958330B9
S11302F021F482E08093253C0895823071F481E0FA
S11303008093253C08958091203C811104C081E0B4
S11303108093203C08951092203C089580910E3CD7
S113032090910F3CA091103CB091113CAA27BB279F
S11303308E379148A105B10529F41092213CA3DF21
S11303403EDF089580910E3C90910F3CA091103CAB
S1130350B091113CAA27BB278E3A9145A105B1055E
S113036031F484E08093213C8EDF29DF089580916D
S11303700E3C90910F3CA091103CB091113CAA27E7
S1130380BB278E35914AA105B10531F482E08093F3
S1130390213C79DF14DF089580910E3C90910F3C4D
S11303A0A091103CB091113CAA27BB2786369949ED
S11303B0A105B10529F486E08093213C64DFFFDECA
S11303C008958091263C823021F0833009F4F7C1EE
S11303D0089581E090E080931A3C90931B3CF8943C
S11303E010924801109249017894C4DE8091080467
S11303F083FD10C020911C3C30911D3C40911E3C5B
S113040050911F3CAAE7B0E024D3693273428105BE
S1130410910564F310921C3C10921D3C10921E3CFA
S113042010921F3CF894109248011092490178945C
S11304308091080483FF10C020911C3C30911D3C26
S113044040911E3C50911F3CAAE7B0E002D36539AD
S113045071418105910564F320911C3C30911D3C50
S113046040911E3C50911F3CAAE7B0E0F2D26D3F90
S11304707840810591050CF041C010921C3C10920B
S11304801D3C10921E3C10921F3C83DE92DEF894B9
S11304901092480110924901789410921C3C1092D9
S11304A01D3C10921E3C10921F3C8091080483FD59
S11304B010C020911C3C30911D3C40911E3C509139
S11304C01F3CAAE7B0E0C5D26935724081059105A9
S11304D064F33ADE10921C3C10921D3C10921E3CB8
S11304E010921F3C10921A3C10921B3CF8941092EC
S11304F0480110924901789442DE0895F8941092CC
S1130500480110924901789410921C3C10921D3CB1
S113051010921E3C10921F3C10921A3C10921B3CED
S113052081E090E08093183C9093193C1092233C16
S11305301092243CCAC01092143C1092153C1092A4
S1130540163C1092173C8091080483FD10C0209142
S1130550143C3091153C4091163C5091173CAAE74D
S1130560B0E077D26B3872408105910564F3109244
S1130570143C1092153C1092163C1092173C09DE64
S113058018DE8091080483FF10C02091143C309140
S1130590153C4091163C5091173CAAE7B0E059D263
S11305A0693077408105910564F38091233C9091F3
S11305B0243C809789F42091143C3091153C40915F
S11305C0163C5091173CAAE7B0E043D2693E734011
S11305D0810591050CF080C02091143C3091153CAC
S11305E04091163C5091173CAAE7B0E032D2693EE4
S11305F0734081059105B4F180910E3C90910F3CBC
S1130600A091103CB091113C880F991FAA1FBB1FE9
S113061080930E3C90930F3CA093103CB093113CFC
S113062080910E3C90910F3CA091103CB091113CF4
S1130630816080930E3C90930F3CA093103CB09348
S1130640113C8091143C9091153CA091163CB091C2
S1130650173C8093143C9093153CA093163CB093A4
S1130660173C24C080910E3C90910F3CA091103C0B
S1130670B091113C880F991FAA1FBB1F80930E3C99
S113068090930F3CA093103CB093113C8091143C88
S11306909091153CA091163CB091173C8093143C6A
S11306A09093153CA093163CB093173CF894109289
S11306B048011092490178948091233C9091243C04
S11306C001968093233C9093243C8091233C909109
S11306D0243C81970CF42FCF25DD81111FDE81E0AE
S11306E090E080931A3C90931B3C10921C3C109217
S11306F01D3C10921E3C10921F3CF894109248012D
S11307001092490178948091080483FF10C02091CD
S11307101C3C30911D3C40911E3C50911F3CAAE76B
S1130720B0E097D16135734C8105910564F3209154
S11307301C3C30911D3C40911E3C50911F3CAAE74B
S1130740B0E087D160347C498105910524F1109291
S1130750083C1092093C10920A3C10920B3C1092F7
S11307600C3C10920D3C8091213C813019F4109284
S1130770213C11C0833021F482E08093213C0BC0E2
S1130780853021F484E08093213C05C0873019F43E
S113079086E08093213C10921A3C10921B3C1092EC
S11307A0143C1092153C1092163C1092173CF8948D
S11307B010924801109249017894E1DC0895109256
S11307C01C3C10921D3C10921E3C10921F3C08953C
S11307D088ED84BFE0E6F0E0128284BF118284BF1A
S11307E081E08283E0E6F4E082E08083148283E0A7
S11307F0809313015EDCFFCF1F920F920FB60F920E
S113080011242F933F934F935F936F937F938F9311
S11308109F93AF93BF93EF93FF9382E08093263C23
S1130820D0DDFF91EF91BF91AF919F918F917F9117
S11308306F915F914F913F912F910F900FBE0F9049
S11308401F9018951F920F920FB60F9211242F9399
S11308503F934F935F936F937F938F939F93AF9344
S1130860BF93EF93FF9381E08093430180911A3CFF
S113087090911B3C019799F480911C3C90911D3CF4
S1130880A0911E3CB0911F3C0196A11DB11D809307
S11308901C3C90931D3CA0931E3CB0931F3C809144
S11308A0183C9091193C0197E1F48091143C90918B
S11308B0153CA091163CB091173C0196A11DB11DA9
S11308C08093143C9093153CA093163CB093173C32
S11308D08091123C9091133C01968093123C90932A
S11308E0133C8091253C843009F058C08091043C2D
S11308F09091053CA091063CB091073C0196A11D46
S1130900B11D8093043C9093053CA093063CB093A6
S1130910073C8091003C9091013CA091023CB09135
S1130920033C0196A11DB11D8093003C9093013CB2
S1130930A093023CB093033C2091043C3091053CCD
S11309404091063C5091073CAAE7B0E082D0603465
S113095072448F40910570F0E0E0F4E0948180E20D
S1130960892784831092043C1092053C1092063C23
S11309701092073C2091003C3091013C4091023C94
S11309805091033CAAE7B0E064D06038734C894CC2
S1130990914020F083E08093253C11DC8091083C59
S11309A09091093C019709F043C080910A3C9091D1
S11309B00B3CA0910C3CB0910D3C0196A11DB11DC6
S11309C080930A3C90930B3CA0930C3CB0930D3C59
S11309D020910A3C30910B3C40910C3C50910D3CD1
S11309E0AAE7B0E036D0611579408D43910540F017
S11309F08091213C813021F485E08093253CDFDB2C
S1130A0020910A3C30910B3C40910C3C50910D3CA0
S1130A10AAE7B0E01ED0611579408D43910540F0FE
S1130A208091213C873021F486E08093253CC7DB0C
S1130A30FF91EF91BF91AF919F918F917F916F91B2
S1130A405F914F913F912F910F900FBE0F901F9088
S1130A50189509D0A59F900DB49F900DA49F800D6B
S1130A60911D11240895A29FB001B39FC001A39FBB
S1130A7001D0B29F700D811D1124911D0895F89429
S1050A80FFCFA2
S9030000FC
