S01700004B756172746973486F6D65776F726B2E73726563DE
S11300000C9473000C9483000C9483000C94960657
S11300100C9483000C9483000C9470060C9483005D
S11300200C9483000C9483000C9483000C94830040
S11300300C9483000C9483000C9483000C94830030
S11300400C9483000C9483000C9483000C94830020
S11300500C9483000C9483000C9483000C94830010
S11300600C9483000C9483000C9483000C94830000
S11300700C9483000C9483000C9483000C948300F0
S11300800C9483000C9483000C9483000C948300E0
S113009053C092C0D1C0E0C0F7C00EC124C133C167
S11300A055C15AC15FC164C169C16EC173C178C110
S11300B07DC182C198C19BC19EC1A1C1A4C1A7C178
S11300C0AAC1ADC1B0C1BFC1C1C1C4C1C7C1CAC148
S11300D0CDC1D0C1D3C1D6C18AC297C2A5C2B3C251
S11300E0C9C2D5C2D6C211241FBECFEFCDBFDFE334
S11300F0DEBF2CE3A0E0BCE301C01D92A234B20732
S1130100E1F731D886C87CCF81E090E0A0E0B0E090
S11301108093343C9093353CA093363CB093373C69
S1130120E091413C8E2F90E08830910508F001C1A8
S1130130FC01E85BFF4F09948091303C9091313C85
S1130140A091323CB091333C80FD11C080912C3C95
S113015090912D3CA0912E3CB0912F3C0197A1058C
S1130160B10529F4E0E6F4E0848180588483609149
S1130170303C7091313C8091323C9091333C2AE088
S113018030E040E050E0F1D7672B682B692B09F091
S1130190D0C080912C3C90912D3CA0912E3CB091EC
S11301A02F3C892B8A2B8B2B09F0C3C0E0E6F4E0AB
S11301B084818058848308958091303C9091313CAF
S11301C0A091323CB091333C80FD11C080912C3C15
S11301D090912D3CA0912E3CB0912F3C892B8A2BE1
S11301E08B2B29F4E0E6F4E08481805884836091C9
S11301F0303C7091313C8091323C9091333C2AE008
S113020030E040E050E0B1D7672B682B692B09F050
S113021090C080912C3C90912D3CA0912E3CB091AB
S11302202F3C0197A105B10509F083C0E0E6F4E095
S113023084818058848308958091303C9091313C2E
S1130240A091323CB091333C80FD73C0E0E6F4E011
S113025084818058848308956091303C7091313C4E
S11302608091323C9091333C2AE030E040E050E011
S11302707CD7672B682B692B09F05BC0E0E6F4E0C0
S113028084818058848308956091303C7091313C1E
S11302908091323C9091333C24E130E040E050E0E6
S11302A064D7672B682B692B09F043C0E0E6F4E0C0
S11302B084818058848308956091303C7091313CEE
S11302C08091323C9091333C2AE030E040E050E0B1
S11302D04CD7672B682B692B61F5E0E6F4E0848149
S11302E08058848308958091303C9091313CA09152
S11302F0323CB091333C80FD1CC0E0E6F4E08481E4
S11303008058848308956091303C7091313C809191
S1130310323C9091333C2AE030E040E050E025D775
S1130320672B682B692B29F4E0E6F4E0848180587C
S113033084830895E0913F3C8E2F90E08A309105AC
S113034008F040C0FC01E05BFF4F0994E0E0F4E0FA
S113035084818E7F84830895E0E0F4E084818B7F40
S113036084830895E0E0F4E084818A7F848308959F
S1130370E0E0F4E084818D7F84830895E0E0F4E09C
S113038084818C7F84830895E0E0F4E08481897F14
S113039084830895E0E0F4E08481887F8483089571
S11303A0E0E0F4E084818F7D84830895E0E0F4E06C
S11303B084818E7D84830895E0E0F4E084818B7DE4
S11303C0848308958FEF8093040410926404089545
S11303D0E0913F3C8E2F90E08930910538F5FC0187
S11303E0E65AFF4F099481E080933F3C089582E0F0
S11303F080933F3C089583E080933F3C089584E0DC
S113040080933F3C089585E080933F3C089586E0C7
S113041080933F3C089587E080933F3C089588E0B3
S113042080933F3C089589E080933F3C0895E09198
S11304303F3C8E2F90E0FC013197E930F10528F51F
S1130440ED59FF4F099410923F3C089581E0809349
S11304503F3C089582E080933F3C089583E080937D
S11304603F3C089584E080933F3C089585E0809369
S11304703F3C089586E080933F3C089587E0809355
S11304803F3C089588E080933F3C089580911A3C56
S113049090911B3CA0911C3CB0911D3C882799274E
S11304A00097A646B14811F481E0089580E00895CC
S11304B01092203C1092213C1092223C1092233C3A
S11304C081E090E08093143C9093153C8091393CFA
S11304D0823020F481E08093393C08959EEF980F98
S11304E0923020F483E08093393C08959CEF980F78
S11304F0923020F485E08093393C08958650823010
S113050018F487E08093393C0895E0E0F4E08389AF
S1130510138A0895E0E0F4E083898360838B10926A
S11305204801109249010895E0E4F1E01086118633
S113053082818E7F82831092203C1092213C109203
S1130540223C1092233C0895E0E4F1E08281816032
S113055082830895109264048091403C813089F034
S113056028F08230C9F0833011F12BC0E0E0F4E0D0
S11305708FEF848384818A7F848381E08093403CED
S11305800895E0E0F4E08FEF84838481897F84839D
S113059082E08093403C0895E0E0F4E08FEF8483B0
S11305A084818D7D848383E08093403C0895E0E0E2
S11305B0F4E08FEF848384818E7D84831092403CA9
S11305C008951092403CE0E0F4E08FEF848384814E
S11305D08E7D84830895E0913D3C8E2F90E087309A
S11305E0910508F05DC0FC01E459FF4F09948FEFB9
S11305F0809304041092640410920C3C10920D3CFD
S113060010920E3C10920F3C0895E0E0F4E08FEF5E
S1130610848384818E7F8483E0E6F4E08481848310
S11306208481806484830895E0E0F4E08FEF848320
S113063084818A7F8483E0E6F4E0848184838481F6
S113064080628483089510920C3C10920D3C1092A9
S11306500E3C10920F3CE0E0F4E08FEF8483848141
S1130660887F8483E0E6F4E08481848384818061EC
S113067084830895E0E0F4E08FEF84838481887DAF
S11306808483E0E6F4E0848184608483089562DFF7
S113069008958FEF80930404109264044BDE089550
S11306A081E080933D3C08958091393C8230E1F0B3
S11306B018F4882339F00895843091F1863009F4D0
S11306C04BC0089580913D3C811107C081E0809327
S11306D03D3C1092413C18DD089510923D3C81E070
S11306E08093413C11DD089582E08093413C0CDD10
S11306F080913D3C813021F482E080933D3C08951B
S1130700823021F483E080933D3C0895833021F4CA
S113071084E080933D3C0895863061F559DE089568
S113072083E08093413CF0DC80913D3C843021F4B3
S113073083E080933D3C0895833021F482E08093EC
S11307403D3C0895823021F481E080933D3C08953E
S1130750863081F46CDE08958091383C811104C0A8
S113076081E08093383C02C01092383C84E080934E
S1130770413CCADC089580911A3C90911B3CA091A5
S11307801C3CB0911D3CAA27BB278E379148A1057C
S1130790B10529F41092393C87DF1DDF089580915B
S11307A01A3C90911B3CA0911C3CB0911D3CAA2783
S11307B0BB278E3A9145A105B10531F484E08093BD
S11307C0393C72DF08DF089580911A3C90911B3CFC
S11307D0A0911C3CB0911D3CAA27BB278E35914AA1
S11307E0A105B10531F482E08093393C5DDFF3DE8D
S11307F0089580911A3C90911B3CA0911C3CB091AF
S11308001D3CAA27BB2786369949A105B10521F4C9
S113081086E08093393C48DF089580913E3C8230E5
S113082021F0833009F4F7C1089581E090E08093CA
S1130830263C9093273CF894109248011092490169
S1130840789463DE8091080483FD10C02091283CD5
S11308503091293C40912A3C50912B3CAAE7B0E0CE
S1130860A0D4693273428105910564F31092283C47
S11308701092293C10922A3C10922B3CF89410922E
S113088048011092490178948091080483FF10C0B4
S11308902091283C3091293C40912A3C50912B3C9A
S11308A0AAE7B0E07ED4653971418105910564F30E
S11308B02091283C3091293C40912A3C50912B3C7A
S11308C0AAE7B0E06ED46D3F7840810591050CF045
S11308D041C01092283C1092293C10922A3C10925C
S11308E02B3C22DE31DEF89410924801109249012B
S11308F078941092283C1092293C10922A3C109231
S11309002B3C8091080483FD10C02091283C309139
S1130910293C40912A3C50912B3CAAE7B0E041D4B9
S1130920693572408105910564F3C2DD1092283C5B
S11309301092293C10922A3C10922B3C1092263C97
S11309401092273CF894109248011092490178942F
S1130950E1DD0895F89410924801109249017894C9
S11309601092283C1092293C10922A3C10922B3C65
S11309701092263C1092273C81E090E08093243C26
S11309809093253C10923B3C10923C3CCAC0109280
S1130990203C1092213C1092223C1092233C8091E6
S11309A0080483FD10C02091203C3091213C4091EB
S11309B0223C5091233CAAE7B0E0F3D36B38724059
S11309C08105910564F31092203C1092213C109211
S11309D0223C1092233CA8DDB7DD8091080483FFFC
S11309E010C02091203C3091213C4091223C5091F8
S11309F0233CAAE7B0E0D5D369307740810591055F
S1130A0064F380913B3C90913C3C809789F4209125
S1130A10203C3091213C4091223C5091233CAAE758
S1130A20B0E0BFD3693E7340810591050CF080C0EE
S1130A302091203C3091213C4091223C5091233C18
S1130A40AAE7B0E0AED3693E734081059105B4F1E5
S1130A5080911A3C90911B3CA0911C3CB0911D3C90
S1130A60880F991FAA1FBB1F80931A3C90931B3CAD
S1130A70A0931C3CB0931D3C80911A3C90911B3C6C
S1130A80A0911C3CB0911D3C816080931A3C9093D2
S1130A901B3CA0931C3CB0931D3C8091203C909146
S1130AA0213CA091223CB091233C8093203C909324
S1130AB0213CA093223CB093233C24C080911A3C57
S1130AC090911B3CA0911C3CB0911D3C880F991F38
S1130AD0AA1FBB1F80931A3C90931B3CA0931C3C01
S1130AE0B0931D3C8091203C9091213CA091223CEC
S1130AF0B091233C8093203C9093213CA093223CD2
S1130B00B093233CF89410924801109249017894D0
S1130B1080913B3C90913C3C019680933B3C90936C
S1130B203C3C80913B3C90913C3C81970CF42FCF12
S1130B30ADDC811120DE81E090E08093263C90932F
S1130B40273C1092283C1092293C10922A3C109287
S1130B502B3CF894109248011092490178948091AA
S1130B60080483FF10C02091283C3091293C409117
S1130B702A3C50912B3CAAE7B0E013D36135734C67
S1130B808105910564F32091283C3091293C4091E2
S1130B902A3C50912B3CAAE7B0E003D360347C4953
S1130BA08105910524F11092143C1092153C109289
S1130BB0163C1092173C1092183C1092193C8091EC
S1130BC0393C813019F41092393C11C0833021F43E
S1130BD082E08093393C0BC0853021F484E080931B
S1130BE0393C05C0873019F486E08093393C109273
S1130BF0263C1092273C1092203C1092213C1092EB
S1130C00223C1092233CF89410924801109249011E
S1130C10789480DC08951092283C1092293C10921C
S1130C202A3C10922B3C089588ED84BFE0E6F0E066
S1130C30128284BF118284BF81E082830895E0E040
S1130C40F4E087E280838FEF84830895E0E6F4E0A4
S1130C5084E7808314820895E0E6F4E0808180686C
S1130C60808384818F7784830895E0E0F4E0808139
S1130C70877F808383898360838B089510924701E3
S1130C80809141018111FCCFE0E4F1E084E090E047
S1130C908287938782818160828381E8808383E075
S1130CA0809313010895E0E6F4E082E080831482E7
S1130CB00895BADFC4DFCADFD8DFF5DFCDDF8FB731
S1130CC080688FBF10923D3C1092383C10923E3C9D
S1130CD088E08093393C81E080933F3CCFDF0895E6
S1130CE01F920F920FB60F9211242F933F934F939D
S1130CF05F936F937F938F939F93AF93BF93EF9380
S1130D00FF9382E080933E3C88DDFF91EF91BF9199
S1130D10AF919F918F917F916F915F914F913F918F
S1130D202F910F900FBE0F901F9018951F920F9246
S1130D300FB60F9211242F933F934F935F936F93AA
S1130D407F938F939F93AF93BF93EF93FF9381E030
S1130D50809343018091263C9091273C019799F41C
S1130D608091283C9091293CA0912A3CB0912B3C45
S1130D700196A11DB11D8093283C9093293CA0931A
S1130D802A3CB0932B3C8091243C9091253C0197C4
S1130D90E1F48091203C9091213CA091223CB091BF
S1130DA0233C0196A11DB11D8093203C9093213CCE
S1130DB0A093223CB093233C80911E3C90911F3C15
S1130DC0019680931E3C90931F3C80913D3C84305F
S1130DD009F058C08091103C9091113CA091123CB4
S1130DE0B091133C0196A11DB11D8093103C9093CA
S1130DF0113CA093123CB093133C80910C3C909115
S1130E000D3CA0910E3CB0910F3C0196A11DB11D6B
S1130E1080930C3C90930D3CA0930E3CB0930F3CFC
S1130E202091103C3091113C4091123C5091133C64
S1130E30AAE7B0E0B6D1603472448F40910570F0F7
S1130E40E0E0F4E0948180E2892784831092103CEE
S1130E501092113C1092123C1092133C20910C3CC5
S1130E6030910D3C40910E3C50910F3CAAE7B0E00C
S1130E7098D16038734C894C914020F083E0809382
S1130E803D3CA9DB8091143C9091153C019709F0FD
S1130E908FC08091163C9091173CA091183CB09162
S1130EA0193C0196A11DB11D8093163C9093173CEB
S1130EB0A093183CB093193C2091163C3091173CF8
S1130EC04091183C5091193CAAE7B0E06AD16038CF
S1130ED074488E419105A0F08091393C813081F4B1
S1130EE081E090E0A0E0B0E08093083C9093093C5E
S1130EF0A0930A3CB0930B3C85E08093413C04D919
S1130F002091163C3091173C4091183C5091193C6B
S1130F10AAE7B0E046D1603874488E419105C0F02C
S1130F208091393C8730A1F48091083C9091093C30
S1130F30A0910A3CB0910B3C892B8A2B8B2B41F45A
S1130F4086E080933D3C87E08093413CDDD843DBE1
S1130F502091163C3091173C4091183C5091193C1B
S1130F60AAE7B0E01ED1603472448F40910500F1CD
S1130F708091393C8730E1F48091083C9091093CA0
S1130F80A0910A3CB0910B3C0197A105B10581F4F5
S1130F9085E080933D3C86E08093413CB5D8109237
S1130FA0083C1092093C10920A3C10920B3C13DB53
S1130FB08091343C9091353CA091363CB091373CC3
S1130FC00197A105B10509F062C08091303C909170
S1130FD0313CA091323CB091333C0196A11DB11D2E
S1130FE08093303C9093313CA093323CB093333C9B
S1130FF0E0E6F4E084818068848386D82091303CE4
S11310003091313C4091323C5091333CAAE7B0E0FE
S1131010C8D0603A764881409105E8F01092343C9B
S11310201092353C1092363C1092373C1092303C72
S11310301092313C1092323C1092333C10922C3C72
S113104010922D3C10922E3C10922F3CE0E6F4E0DE
S113105084818F7784832091303C3091313C40915E
S1131060323C5091333CAAE7B0E09BD06035734CDE
S11310708105910560F081E090E0A0E0B0E080930C
S11310802C3C90932D3CA0932E3CB0932F3C80910C
S11310903D3C853061F58091043C9091053CA091E4
S11310A0063CB091073C0196A11DB11D8093043C00
S11310B09093053CA093063CB093073C2091043CDC
S11310C03091053C4091063C5091073CAAE7B0E0C2
S11310D068D0603472448F40910548F01092043C0B
S11310E01092053C1092063C1092073C74DA8091F1
S11310F03D3C863039F58091003C9091013CA091B3
S1131100023CB091033C0196A11DB11D8093003CAB
S11311109093013CA093023CB093033C8091003C2B
S11311209091013CA091023CB091033C0A97A10527
S1131130B10541F41092003C1092013C1092023C23
S11311401092033CFF91EF91BF91AF919F918F91CA
S11311507F916F915F914F913F912F910F900FBEAF
S11311600F901F901895A5DDFFCF052E97FB16F461
S113117000940FD057FD05D01ED007FC02D046F4D2
S113118008C050954095309521953F4F4F4F5F4F84
S1131190089590958095709561957F4F8F4F9F4FDF
S11311A008952BD0A59F900DB49F900DA49F800D02
S11311B0911D11240895A1E21A2EAA1BBB1BFD0147
S11311C00DC0AA1FBB1FEE1FFF1FA217B307E40722
S11311D0F50720F0A21BB30BE40BF50B661F771F7A
S11311E0881F991F1A9469F760957095809590955A
S11311F09B01AC01BD01CF010895A29FB001B39F33
S1131200C001A39F01D0B29F700D811D1124911DB7
S10912100895F894FFCFDD
S9030000FC
