S01700004B756172746973486F6D65776F726B2E73726563DE
S11300000C9448000C9450000C9450000C94500034
S11300100C9450000C9450000C9450000C9450001C
S11300200C9450000C9450000C9450000C9450000C
S11300300C9450000C9450000C9450000C945000FC
S11300400C9450000C9450000C9450000C945000EC
S11300500C9450000C9450000C9450000C945000DC
S11300600C9450000C9450000C9450000C945000CC
S11300700C9450000C9450000C9450000C945000BC
S11300800C9450000C9450000C9450000C945000AC
S113009011241FBECFEFCDBFDFE3DEBF02D00DC002
S11300A0AFCFE0E0F4E087E280838FEF848388EDD4
S11100B0848384818C7F8483FFCFF894FFCFF8
S9030000FC
