:100000000C9448000C9458000C9458000C947C05F7
:100010000C9458000C9458000C9456050C945800FD
:100020000C9458000C9458000C9458000C945800F0
:100030000C9458000C9458000C9458000C945800E0
:100040000C9458000C9458000C9458000C945800D0
:100050000C9458000C9458000C9458000C945800C0
:100060000C9458000C9458000C9458000C945800B0
:100070000C9458000C9458000C9458000C945800A0
:100080000C9458000C9458000C9458000C94580090
:1000900011241FBECFEFCDBFDFE3DEBF2CE3A0E016
:1000A000BCE301C01D92AD33B207E1F7EBD45CC7EE
:1000B000A7CF81E090E0A0E0B0E08093303C909347
:1000C000313CA093323CB093333C80913C3C823035
:1000D00009F491C030F4882371F0813009F44BC0E9
:1000E0000895853009F4AEC0863009F4C2C083306B
:1000F00009F0CEC090C080912C3C90912D3CA091F5
:100100002E3CB0912F3C80FD11C08091283C9091F5
:10011000293CA0912A3CB0912B3C0197A105B10547
:1001200029F4E0E6F4E084818058848360912C3CDB
:1001300070912D3C80912E3C90912F3C2AE030E034
:1001400040E050E0BDD6672B682B692B09F0A0C0BA
:100150008091283C9091293CA0912A3CB0912B3C65
:10016000892B8A2B8B2B09F093C0E0E6F4E0848185
:1001700080588483089580912C3C90912D3CA091CF
:100180002E3CB0912F3C80FD11C08091283C909175
:10019000293CA0912A3CB0912B3C892B8A2B8B2B9C
:1001A00029F4E0E6F4E084818058848360912C3C5B
:1001B00070912D3C80912E3C90912F3C2AE030E0B4
:1001C00040E050E07DD6672B682B692B09F060C0BA
:1001D0008091283C9091293CA0912A3CB0912B3CE5
:1001E0000197A105B10509F053C0E0E6F4E0848170
:1001F00080588483089580912C3C90912D3CA0914F
:100200002E3CB0912F3C80FD43C0E0E6F4E08481B9
:1002100080588483089560912C3C70912D3C80918E
:100220002E3C90912F3C2AE030E040E050E048D650
:10023000672B682B692B61F5E0E6F4E08481805838
:100240008483089560912C3C70912D3C80912E3CCC
:1002500090912F3C2AE030E040E050E031D6672B0F
:10026000682B692BA9F4E0E6F4E08481805884834C
:10027000089580912C3C90912D3CA0912E3CB09102
:100280002F3C80FD05C0E0E6F4E084818058848343
:1002900008957894E0E0F4E087E280838FEF848330
:1002A000A0E6B4E084E78C9314961C9214978C918A
:1002B00080688C9314968C9114978F7714968C93F6
:1002C0008081877F808383898360838B8FB78068F9
:1002D0008FBF78941092393C1092343C10923A3C83
:1002E00010924701809141018111FCCFE0E4F1E0DF
:1002F00084E090E08287938782818160828381E8B5
:10030000808308958091163C9091173CA091183CF1
:10031000B091193C882799270097A646B14811F457
:1003200081E0089580E0089510921C3C10921D3CDD
:1003300010921E3C10921F3C81E090E08093103C94
:100340009093113C8091353C823020F481E0809381
:10035000353C08959EEF980F923020F483E080930F
:10036000353C08959CEF980F923020F485E08093FF
:10037000353C08958650823018F487E08093353CF0
:100380000895E0E0F4E08389138A0895E0E0F4E062
:1003900083898360838B10924801109249010895EC
:1003A000E0E4F1E01086118682818E7F82831092D4
:1003B0001C3C10921D3C10921E3C10921F3C089554
:1003C000E0E4F1E0828181608283089580913B3C8A
:1003D000813089F028F08230C9F0833011F12BC0D0
:1003E000E0E0F4E08FEF848384818A7F848381E07E
:1003F00080933B3C0895E0E0F4E08FEF84838481B8
:10040000897F848382E080933B3C0895E0E0F4E0C0
:100410008FEF848384818D7D848383E080933B3C54
:100420000895E0E0F4E08FEF848384818E7D8483FF
:1004300010923B3C089510923B3CE0E0F4E08FEFDB
:10044000848384818E7D848308958091393C8230B9
:1004500059F128F4882359F08130B9F05AC084301A
:1004600009F448C080F1853009F451C052C08FEFC3
:1004700080930404109264041092083C1092093C8A
:1004800010920A3C10920B3C0895E0E0F4E08FEFEC
:10049000848384818E7F8483E0E6F4E08481848396
:1004A0008481806484830895E0E0F4E08FEF8483A6
:1004B00084818A7F8483E0E6F4E08481848384817C
:1004C0008062848308951092083C1092093C109237
:1004D0000A3C10920B3CE0E0F4E08FEF84838481CF
:1004E000887F8483E0E6F4E0848184838481806172
:1004F00084830895E0E0F4E08FEF84838481887D35
:100500008483E0E6F4E084818460848308955EDF80
:10051000089581E08093393C08958091353C823084
:10052000E1F018F4882339F00895843071F18630B1
:1005300009F443C008958091393C811107C081E0DE
:100540008093393C10923C3CB4DD08951092393CC4
:1005500081E080933C3CADDD089582E080933C3C9B
:10056000A8DD8091393C813021F482E08093393CD0
:100570000895823021F483E08093393C08958330DC
:1005800031F584E08093393C089583E080933C3CCE
:1005900090DD8091393C843021F483E08093393CB4
:1005A0000895833021F482E08093393C08958230AD
:1005B00071F481E08093393C08958091343C81113D
:1005C00004C081E08093343C08951092343C089537
:1005D0008091163C9091173CA091183CB091193C29
:1005E000AA27BB278E379148A105B10529F410929F
:1005F000353C93DF2ADF08958091163C9091173C9B
:10060000A091183CB091193CAA27BB278E3A91457E
:10061000A105B10531F484E08093353C7EDF15DF20
:1006200008958091163C9091173CA091183CB09190
:10063000193CAA27BB278E35914AA105B10531F493
:1006400082E08093353C69DF00DF08958091163C9D
:100650009091173CA091183CB091193CAA27BB2758
:1006600086369949A105B10529F486E08093353C89
:1006700054DFEBDE089580913A3C823021F08330E4
:1006800009F4F7C1089581E090E08093223C9093B3
:10069000233CF8941092480110924901789471DE3D
:1006A0008091080483FD10C02091243C3091253CAA
:1006B0004091263C5091273CAAE7B0E01DD4693216
:1006C00073428105910564F31092243C1092253CFD
:1006D0001092263C1092273CF894109248011092F8
:1006E000490178948091080483FF10C02091243C34
:1006F0003091253C4091263C5091273CAAE7B0E040
:10070000FBD3653971418105910564F32091243C47
:100710003091253C4091263C5091273CAAE7B0E01F
:10072000EBD36D3F7840810591050CF041C01092EC
:10073000243C1092253C1092263C1092273C30DE3F
:100740003FDEF8941092480110924901789410927B
:10075000243C1092253C1092263C1092273C80911C
:10076000080483FD10C02091243C3091253C409129
:10077000263C5091273CAAE7B0E0BED369357240D1
:100780008105910564F3D0DD1092243C1092253C44
:100790001092263C1092273C1092223C1092233C4F
:1007A000F89410924801109249017894EFDD089571
:1007B000F894109248011092490178941092243CC8
:1007C0001092253C1092263C1092273C1092223C1D
:1007D0001092233C81E090E08093203C9093213C58
:1007E0001092373C1092383CCAC010921C3C1092B8
:1007F0001D3C10921E3C10921F3C8091080483FD0A
:1008000010C020911C3C30911D3C40911E3C5091E9
:100810001F3CAAE7B0E070D36B38724081059105A8
:1008200064F310921C3C10921D3C10921E3C1092DE
:100830001F3CB6DDC5DD8091080483FF10C0209108
:100840001C3C30911D3C40911E3C50911F3CAAE73E
:10085000B0E052D3693077408105910564F380910F
:10086000373C9091383C809789F420911C3C309122
:100870001D3C40911E3C50911F3CAAE7B0E03CD388
:10088000693E7340810591050CF080C020911C3CAD
:1008900030911D3C40911E3C50911F3CAAE7B0E0B6
:1008A0002BD3693E734081059105B4F18091163CCC
:1008B0009091173CA091183CB091193C880F991F5A
:1008C000AA1FBB1F8093163C9093173CA093183C23
:1008D000B093193C8091163C9091173CA091183C24
:1008E000B091193C81608093163C9093173CA09383
:1008F000183CB093193C80911C3C90911D3CA091F8
:100900001E3CB0911F3C80931C3C90931D3CA093D7
:100910001E3CB0931F3C24C08091163C9091173C24
:10092000A091183CB091193C880F991FAA1FBB1FBA
:100930008093163C9093173CA093183CB093193CBD
:1009400080911C3C90911D3CA0911E3CB0911F3C9D
:1009500080931C3C90931D3CA0931E3CB0931F3C85
:10096000F894109248011092490178948091373C94
:100970009091383C01968093373C9093383C80911D
:10098000373C9091383C81970CF42FCFBBDC811120
:100990001FDE81E090E08093223C9093233C1092F4
:1009A000243C1092253C1092263C1092273CF8944F
:1009B000109248011092490178948091080483FFB5
:1009C00010C02091243C3091253C4091263C509110
:1009D000273CAAE7B0E090D26135734C81059105C0
:1009E00064F32091243C3091253C4091263C509169
:1009F000273CAAE7B0E080D260347C4981059105AC
:100A000024F11092103C1092113C1092123C109262
:100A1000133C1092143C1092153C8091353C81306F
:100A200019F41092353C11C0833021F482E0809398
:100A3000353C0BC0853021F484E08093353C05C003
:100A4000873019F486E08093353C1092223C109256
:100A5000233C10921C3C10921D3C10921E3C1092A4
:100A60001F3CF894109248011092490178948EDC52
:100A700008951092243C1092253C1092263C10922E
:100A8000273C089588ED84BFE0E6F0E0128284BF41
:100A9000118284BF81E08283E0E6F4E082E080831B
:100AA000148283E080931301F4DBFFCF1F920F9237
:100AB0000FB60F9211242F933F934F935F936F9331
:100AC0007F938F939F93AF93BF93EF93FF9382E0B6
:100AD00080933A3CD0DDFF91EF91BF91AF919F9110
:100AE0008F917F916F915F914F913F912F910F90D7
:100AF0000FBE0F901F9018951F920F920FB60F9276
:100B000011242F933F934F935F936F937F938F9312
:100B10009F93AF93BF93EF93FF9381E08093430143
:100B20008091223C9091233C019799F48091243C40
:100B30009091253CA091263CB091273C0196A11DA7
:100B4000B11D8093243C9093253CA093263CB09308
:100B5000273C8091203C9091213C0197E1F48091C9
:100B60001C3C90911D3CA0911E3CB0911F3C0196F5
:100B7000A11DB11D80931C3C90931D3CA0931E3C75
:100B8000B0931F3C80911A3C90911B3C019680933E
:100B90001A3C90931B3C8091393C843009F058C03A
:100BA00080910C3C90910D3CA0910E3CB0910F3C7B
:100BB0000196A11DB11D80930C3C90930D3CA09318
:100BC0000E3CB0930F3C8091083C9091093CA09161
:100BD0000A3CB0910B3C0196A11DB11D8093083CCD
:100BE0009093093CA0930A3CB0930B3C20910C3CA1
:100BF00030910D3C40910E3C50910F3CAAE7B0E083
:100C00007BD1603472448F40910570F0E0E0F4E0F5
:100C1000948180E28927848310920C3C10920D3CD1
:100C200010920E3C10920F3C2091083C3091093CF0
:100C300040910A3C50910B3CAAE7B0E05DD160388E
:100C4000734C894C914020F083E08093393CFDDB6C
:100C50008091103C9091113C019709F081C08091E6
:100C6000123C9091133CA091143CB091153C01961C
:100C7000A11DB11D8093123C9093133CA093143C92
:100C8000B093153C2091123C3091133C4091143CA0
:100C90005091153CAAE7B0E02FD1603874488E41DE
:100CA0009105B0F08091353C813091F481E090E085
:100CB000A0E0B0E08093043C9093053CA093063CF8
:100CC000B093073C85E080933C3CF3D91092353CCF
:100CD0002091123C3091133C4091143C5091153CB2
:100CE000AAE7B0E009D1611579408D43910540F044
:100CF0008091353C873021F486E08093393CA5DB38
:100D00002091123C3091133C4091143C5091153C81
:100D1000AAE7B0E0F1D0603874488E41910500F147
:100D20008091353C8730E1F48091043C9091053C02
:100D3000A091063CB091073C0197A105B10581F453
:100D400085E08093393C86E080933C3CB2D9109298
:100D5000043C1092053C1092063C1092073C75DB57
:100D60008091303C9091313CA091323CB091333C29
:100D70000197A105B10509F062C080912C3C9091CA
:100D80002D3CA0912E3CB0912F3C0196A11DB11D90
:100D900080932C3C90932D3CA0932E3CB0932F3C01
:100DA000E0E6F4E084818068848383D920912C3C40
:100DB00030912D3C40912E3C50912F3CAAE7B0E061
:100DC0009BD0603A764881409105E8F01092303C23
:100DD0001092313C1092323C1092333C10922C3CD9
:100DE00010922D3C10922E3C10922F3C1092283CD9
:100DF0001092293C10922A3C10922B3CE0E6F4E041
:100E000084818F77848320912C3C30912D3C4091BC
:100E10002E3C50912F3CAAE7B0E06ED06035734C69
:100E20008105910560F081E090E0A0E0B0E0809362
:100E3000283C9093293CA0932A3CB0932B3C809172
:100E4000393C853061F58091003C9091013CA09146
:100E5000023CB091033C0196A11DB11D8093003C62
:100E60009093013CA093023CB093033C2091003C42
:100E70003091013C4091023C5091033CAAE7B0E024
:100E80003BD0603472448F40910548F01092003C92
:100E90001092013C1092023C1092033CD6DAFF9172
:100EA000EF91BF91AF919F918F917F916F915F91E2
:100EB0004F913F912F910F900FBE0F901F9018955B
:100EC000052E97FB16F400940FD057FD05D01ED0C9
:100ED00007FC02D046F408C0509540953095219506
:100EE0003F4F4F4F5F4F0895909580957095619556
:100EF0007F4F8F4F9F4F08952BD0A59F900DB49F8C
:100F0000900DA49F800D911D11240895A1E21A2E29
:100F1000AA1BBB1BFD010DC0AA1FBB1FEE1FFF1F9D
:100F2000A217B307E407F50720F0A21BB30BE40BED
:100F3000F50B661F771F881F991F1A9469F7609534
:100F40007095809590959B01AC01BD01CF010895EE
:100F5000A29FB001B39FC001A39F01D0B29F700DAB
:0C0F6000811D1124911D0895F894FFCF0D
:00000001FF
