S01700004B756172746973486F6D65776F726B2E73726563DE
S11300000C9448000C9458000C9458000C94D9009B
S11300100C9458000C9458000C94B5000C9458009F
S11300200C9458000C9458000C9458000C945800EC
S11300300C9458000C9458000C9458000C945800DC
S11300400C9458000C9458000C9458000C945800CC
S11300500C9458000C9458000C9458000C945800BC
S11300600C9458000C9458000C9458000C945800AC
S11300700C9458000C9458000C9458000C9458009C
S11300800C9458000C9458000C9458000C9458008C
S113009011241FBECFEFCDBFDFE3DEBF2CE3A0E012
S11300A0BCE301C01D92AB30B207E1F74DD0CCC028
S11300B0A7CF7894E0E0F4E087E280838FEF848335
S11300C0A0E6B4E084E78C9314961C9214978C9168
S11300D080688C9314968C9114978F7714968C93D4
S11300E08081877F808383898360838B8FB78068D7
S11300F08FBF78941092093C1092063C10920A3CEF
S113010010924701809141018111FCCFE0E4F1E0BC
S113011020E030E82287338782818160828381E80E
S11301208083248735870895E0E0F4E08389138A87
S1130130089580910A3C811106C081E090E080938B
S1130140003C9093013C089588ED84BFE0E6F0E024
S1130150128284BF118284BF81E08283E0E6F4E0EE
S113016082E080831482A5DFFFCF1F920F920FB627
S11301700F9211242F933F934F935F936F937F9329
S11301808F939F93AF93BF93EF93FF93D2DFCCDF13
S1130190FF91EF91BF91AF919F918F917F916F915B
S11301A05F914F913F912F910F900FBE0F901F9031
S11301B018951F920F920FB60F9211248F939F934D
S11301C0AF93BF9381E0809343018091003C909171
S11301D0013C019741F58091023C9091033CA09130
S11301E0043CB091053C0196A11DB11D8093023CD5
S11301F09093033CA093043CB093053C8091023C53
S11302009091033CA091043CB091053C0497A10556
S1130210B1058CF01092023C1092033C1092043C05
S11302201092053C08C01092023C1092033C1092BC
S1130230043C1092053CBF91AF919F918F910F9018
S10F02400FBE0F901F901895F894FFCF8C
S9030000FC
