:100000000C9448000C9458000C9458000C94F00484
:100010000C9458000C9458000C94CA040C9458008A
:100020000C9458000C9458000C9458000C945800F0
:100030000C9458000C9458000C9458000C945800E0
:100040000C9458000C9458000C9458000C945800D0
:100050000C9458000C9458000C9458000C945800C0
:100060000C9458000C9458000C9458000C945800B0
:100070000C9458000C9458000C9458000C945800A0
:100080000C9458000C9458000C9458000C94580090
:1000900011241FBECFEFCDBFDFE3DEBF2CE3A0E016
:1000A000BCE301C01D92A833B207E1F75FD48EC64E
:1000B000A7CF81E090E0A0E0B0E080932C3C90934B
:1000C0002D3CA0932E3CB0932F3C8091373C813047
:1000D00009F448C038F0823009F482C0833009F452
:1000E0008FC008958091283C9091293CA0912A3C92
:1000F000B0912B3C80FD11C08091243C9091253C17
:10010000A091263CB091273C0197A105B10529F4A7
:10011000E0E6F4E08481805884836091283C70910B
:10012000293C80912A3C90912B3C2AE030E040E031
:1001300050E0F8D5672B682B692B09F077C08091C8
:10014000243C9091253CA091263CB091273C892BE2
:100150008A2B8B2B09F06AC0E0E6F4E0848180589A
:10016000848308958091283C9091293CA0912A3C59
:10017000B0912B3C80FD11C08091243C9091253C96
:10018000A091263CB091273C892B8A2B8B2B29F4FC
:10019000E0E6F4E08481805884836091283C70918B
:1001A000293C80912A3C90912B3C2AE030E040E0B1
:1001B00050E0B8D5672B682B692BC1F58091243CA2
:1001C0009091253CA091263CB091273C0197A10538
:1001D000B10561F5E0E6F4E08481805884830895F8
:1001E0008091283C9091293CA0912A3CB0912B3CD5
:1001F00080FD1CC0E0E6F4E084818058848308958B
:100200006091283C7091293C80912A3C90912B3C34
:100210002AE030E040E050E085D5672B682B692B61
:1002200029F4E0E6F4E0848180588483089578948A
:10023000E0E0F4E087E280838FEF8483A0E6B4E01F
:1002400084E78C9314961C9214978C9180688C93FD
:1002500014968C9114978F7714968C938081877F56
:10026000808383898360838B8FB780688FBF789406
:100270001092353C1092303C1092363C109247015F
:10028000809141018111FCCFE0E4F1E084E090E055
:100290008287938782818160828381E88083089549
:1002A0008091123C9091133CA091143CB091153C6C
:1002B000882799270097A646B14811F481E0089550
:1002C00080E008951092183C1092193C10921A3C4C
:1002D00010921B3C81E090E080930C3C90930D3C8D
:1002E0008091313C823018F481E08093313C089554
:1002F000E0E0F4E08389138A0895E0E0F4E0838984
:100300008360838B10924801109249010895E0E4C4
:10031000F1E01086118682818E7F82831092183CD4
:100320001092193C10921A3C10921B3C0895E0E484
:10033000F1E082818160828308958091353C823032
:1003400049F128F4882349F08130A9F056C0833060
:1003500081F1843009F444C050C08FEF80930404CD
:10036000109264041092043C1092053C1092063CDA
:100370001092073C0895E0E0F4E08FEF84838481DD
:100380008E7F8483E0E6F4E08481848384818064CA
:1003900084830895E0E0F4E08FEF848384818A7F92
:1003A0008483E0E6F4E084818483848180628483B2
:1003B00008951092043C1092053C1092063C109255
:1003C000073CE0E0F4E08FEF84838481887F8483BE
:1003D000E0E6F4E0848184838481806184830895ED
:1003E000E0E0F4E08FEF84838481887D8483E0E61D
:1003F000F4E0848184608483089581E08093353CB7
:1004000008958091313C8230E1F018F4882339F06E
:100410000895843071F1863009F443C008958091C5
:10042000353C811107C081E08093353C1092373C08
:1004300040DE08951092353C81E08093373C39DEF0
:10044000089582E08093373C34DE8091353C8130E2
:1004500021F482E08093353C0895823021F483E0DA
:100460008093353C0895833031F584E08093353CAA
:10047000089583E08093373C1CDE8091353C8430C6
:1004800021F483E08093353C0895833021F482E0A9
:100490008093353C0895823071F481E08093353C3F
:1004A00008958091303C811104C081E08093303CFC
:1004B00008951092303C08958091123C9091133C25
:1004C000A091143CB091153CAA27BB278E379148C8
:1004D000A105B10529F41092313C93DF2EDF089578
:1004E0008091123C9091133CA091143CB091153C2A
:1004F000AA27BB278E3A9145A105B10531F484E0C6
:100500008093313C7EDF19DF08958091123C9091F9
:10051000133CA091143CB091153CAA27BB278E3503
:10052000914AA105B10531F482E08093313C69DF45
:1005300004DF08958091123C9091133CA091143CEB
:10054000B091153CAA27BB2786369949A105B1056C
:1005500029F486E08093313C54DFEFDE08958091EA
:10056000363C823021F0833009F4F7C1089581E0F0
:1005700090E080931E3C90931F3CF89410924801A9
:10058000109249017894B4DE8091080483FD10C074
:100590002091203C3091213C4091223C5091233CC1
:1005A000AAE7B0E0DBD3693273428105910564F3B9
:1005B0001092203C1092213C1092223C1092233C3D
:1005C000F89410924801109249017894809108049F
:1005D00083FF10C02091203C3091213C4091223C6F
:1005E0005091233CAAE7B0E0B9D365397141810548
:1005F000910564F32091203C3091213C4091223CB4
:100600005091233CAAE7B0E0A9D36D3F7840810523
:1006100091050CF041C01092203C1092213C1092A8
:10062000223C1092233C73DE82DEF8941092480143
:100630001092490178941092203C1092213C109223
:10064000223C1092233C8091080483FD10C020912D
:10065000203C3091213C4091223C5091233CAAE720
:10066000B0E07CD3693572408105910564F32ADEE0
:100670001092203C1092213C1092223C1092233C7C
:1006800010921E3C10921F3CF89410924801109258
:100690004901789432DE0895F8941092480110923E
:1006A000490178941092203C1092213C1092223CF7
:1006B0001092233C10921E3C10921F3C81E090E06F
:1006C00080931C3C90931D3C1092333C1092343C20
:1006D000CAC01092183C1092193C10921A3C109209
:1006E0001B3C8091080483FD10C02091183C309180
:1006F000193C40911A3C50911B3CAAE7B0E02ED324
:100700006B3872408105910564F31092183C109289
:10071000193C10921A3C10921B3CF9DD08DE8091C6
:10072000080483FF10C02091183C3091193C40917F
:100730001A3C50911B3CAAE7B0E010D369307740D7
:100740008105910564F38091333C9091343C80970E
:1007500089F42091183C3091193C40911A3C5091F9
:100760001B3CAAE7B0E0FAD2693E734081059105CF
:100770000CF080C02091183C3091193C40911A3CFB
:1007800050911B3CAAE7B0E0E9D2693E7340810575
:100790009105B4F18091123C9091133CA091143CCE
:1007A000B091153C880F991FAA1FBB1F8093123C64
:1007B0009093133CA093143CB093153C8091123C51
:1007C0009091133CA091143CB091153C81608093B2
:1007D000123C9093133CA093143CB093153C809131
:1007E000183C9091193CA0911A3CB0911B3C80930D
:1007F000183C9093193CA0931A3CB0931B3C24C026
:100800008091123C9091133CA091143CB091153C06
:10081000880F991FAA1FBB1F8093123C9093133C13
:10082000A093143CB093153C8091183C9091193CD6
:10083000A0911A3CB0911B3C8093183C9093193CBA
:10084000A0931A3CB0931B3CF8941092480110926C
:10085000490178948091333C9091343C0196809387
:10086000333C9093343C8091333C9091343C81975D
:100870000CF42FCF15DD81111FDE81E090E0809315
:100880001E3C90931F3C1092203C1092213C1092F1
:10089000223C1092233CF894109248011092490196
:1008A00078948091080483FF10C02091203C3091FF
:1008B000213C4091223C5091233CAAE7B0E04ED22B
:1008C0006135734C8105910564F32091203C309192
:1008D000213C4091223C5091233CAAE7B0E03ED21B
:1008E00060347C498105910524F110920C3C1092F2
:1008F0000D3C10920E3C10920F3C1092103C109246
:10090000113C8091313C813019F41092313C11C07E
:10091000833021F482E08093313C0BC0853021F498
:1009200084E08093313C05C0873019F486E08093E1
:10093000313C10921E3C10921F3C1092183C1092B9
:10094000193C10921A3C10921B3CF89410924801EA
:10095000109249017894D1DC08951092203C1092B5
:10096000213C1092223C1092233C089588ED84BFD4
:10097000E0E6F0E0128284BF118284BF81E08283CE
:10098000E0E6F4E082E08083148283E08093130148
:100990004EDCFFCF1F920F920FB60F9211242F93B0
:1009A0003F934F935F936F937F938F939F93AF93F7
:1009B000BF93EF93FF9382E08093363CD0DDFF91AD
:1009C000EF91BF91AF919F918F917F916F915F91C7
:1009D0004F913F912F910F900FBE0F901F90189540
:1009E0001F920F920FB60F9211242F933F934F93A4
:1009F0005F936F937F938F939F93AF93BF93EF9387
:100A0000FF9381E08093430180911E3C90911F3CB5
:100A1000019799F48091203C9091213CA091223C37
:100A2000B091233C0196A11DB11D8093203C909371
:100A3000213CA093223CB093233C80911C3C90919C
:100A40001D3C0197E1F48091183C9091193CA091D4
:100A50001A3CB0911B3C0196A11DB11D8093183C1E
:100A60009093193CA0931A3CB0931B3C8091163C88
:100A70009091173C01968093163C9093173C80917F
:100A8000353C843009F058C08091083C9091093C75
:100A9000A0910A3CB0910B3C0196A11DB11D809321
:100AA000083C9093093CA0930A3CB0930B3C809186
:100AB000043C9091053CA091063CB091073C019606
:100AC000A11DB11D8093043C9093053CA093063C6E
:100AD000B093073C2091083C3091093C40910A3C7E
:100AE00050910B3CAAE7B0E039D1603472448F409A
:100AF000910570F0E0E0F4E0948180E2892784833E
:100B00001092083C1092093C10920A3C10920B3C47
:100B10002091043C3091053C4091063C5091073CAB
:100B2000AAE7B0E01BD16038734C894C914020F0AB
:100B300083E08093353C01DC80910C3C90910D3C2E
:100B4000019709F06FC080910E3C90910F3CA091ED
:100B5000103CB091113C0196A11DB11D80930E3C3B
:100B600090930F3CA093103CB093113C20910E3C0D
:100B700030910F3C4091103C5091113CAAE7B0E0FD
:100B8000EDD0611579408D43910588F08091313C1D
:100B9000813069F481E090E0A0E0B0E08093003C17
:100BA0009093013CA093023CB093033CC6DB2091A0
:100BB0000E3C30910F3C4091103C5091113CAAE703
:100BC000B0E0CCD0611579408D43910540F0809123
:100BD000313C873021F486E08093353CAEDB2091B8
:100BE0000E3C30910F3C4091103C5091113CAAE7D3
:100BF000B0E0B4D0603874488E41910598F080918F
:100C0000313C873079F48091003C9091013CA09177
:100C1000023CB091033C0197A105B10519F485E0B0
:100C20008093353C80912C3C90912D3CA0912E3CA2
:100C3000B0912F3C0197A105B10509F062C08091E8
:100C4000283C9091293CA0912A3CB0912B3C0196E4
:100C5000A11DB11D8093283C9093293CA0932A3C70
:100C6000B0932B3CE0E6F4E084818068848321DA51
:100C70002091283C3091293C40912A3C50912B3CBA
:100C8000AAE7B0E06BD0603A764881409105E8F081
:100C900010922C3C10922D3C10922E3C10922F3C26
:100CA0001092283C1092293C10922A3C10922B3C26
:100CB0001092243C1092253C1092263C1092273C26
:100CC000E0E6F4E084818F7784832091283C3091A2
:100CD000293C40912A3C50912B3CAAE7B0E03ED001
:100CE0006035734C8105910560F081E090E0A0E0F3
:100CF000B0E08093243C9093253CA093263CB09395
:100D0000273CFF91EF91BF91AF919F918F917F9180
:100D10006F915F914F913F912F910F900FBE0F9068
:100D20001F901895052E97FB16F400940FD057FDD1
:100D300005D01ED007FC02D046F408C0509540955F
:100D4000309521953F4F4F4F5F4F08959095809577
:100D5000709561957F4F8F4F9F4F08952BD0A59F22
:100D6000900DB49F900DA49F800D911D11240895A6
:100D7000A1E21A2EAA1BBB1BFD010DC0AA1FBB1F9F
:100D8000EE1FFF1FA217B307E407F50720F0A21B11
:100D9000B30BE40BF50B661F771F881F991F1A947E
:100DA00069F760957095809590959B01AC01BD01A8
:100DB000CF010895A29FB001B39FC001A39F01D0AE
:100DC000B29F700D811D1124911D0895F894FFCFDD
:00000001FF
