:100000000C9448000C9458000C9458000C940A026C
:100010000C9458000C9458000C94E4010C94580073
:100020000C9458000C9458000C9458000C945800F0
:100030000C9458000C9458000C9458000C945800E0
:100040000C9458000C9458000C9458000C945800D0
:100050000C9458000C9458000C9458000C945800C0
:100060000C9458000C9458000C9458000C945800B0
:100070000C9458000C9458000C9458000C945800A0
:100080000C9458000C9458000C9458000C94580090
:1000900011241FBECFEFCDBFDFE3DEBF2CE3A0E016
:1000A000BCE301C01D92A731B207E1F779D10EC2BE
:1000B000A7CF7894E0E0F4E087E280838FEF848339
:1000C000A0E6B4E084E78C9314961C9214978C916C
:1000D00080688C9314968C9114978F7714968C93D8
:1000E0008081877F808383898360838B8FB78068DB
:1000F0008FBF78941092153C1092103C1092163CD1
:1001000010924701809141018111FCCFE0E4F1E0C0
:1001100084E090E08287938782818160828381E896
:1001200080830895E0E0F4E08389138A0895E0E491
:10013000F1E01086118682818E7F82831092063CC8
:100140001092073C0895E0E4F1E0828181608283AF
:1001500008958091163C823021F0833009F417C154
:10016000089581E090E080930A3C90930B3CF894D2
:1001700010924801109249017894D4DF80910804CC
:1001800083FD10C020910C3C30910D3C40910E3C01
:1001900050910F3CAAE7B0E083D1693273428105E8
:1001A000910564F3F89410924801109249017894F3
:1001B00010920C3C10920D3C10920E3C10920F3C91
:1001C0008091080483FF10C020910C3C30910D3CBD
:1001D00040910E3C50910F3CAAE7B0E061D16539E7
:1001E00071418105910564F310920C3C10920D3C15
:1001F00010920E3C10920F3CF8941092480110920D
:100200004901789410920C3C10920D3C10920E3CD7
:1002100010920F3C10920A3C10920B3C81E090E04F
:100220008093083C9093093C1092133C1092143C2C
:1002300092C01092063C1092073C8091080483FD06
:100240000DC02091063C3091073C4AE7429FC00117
:10025000439F900D11248B3892407CF31092063C02
:100260001092073C64DF6FDF8091080483FF0DC0AC
:100270002091063C3091073C4AE7429FC001439FD2
:10028000900D1124893097407CF32091063C3091E9
:10029000073C4AE7429FC001439F900D1124893ECD
:1002A000934074F18091003C9091013CA091023CFC
:1002B000B091033C880F991FAA1FBB1F8093003C7D
:1002C0009093013CA093023CB093033C8091003C8E
:1002D0009091013CA091023CB091033C81608093DD
:1002E000003C9093013CA093023CB093033C80916E
:1002F000063C9091073C8093063C9093073C1CC0C1
:100300008091003C9091013CA091023CB091033C53
:10031000880F991FAA1FBB1F8093003C9093013C3C
:10032000A093023CB093033C8091063C9091073C23
:100330008093063C9093073CF894109248011092E9
:10034000490178948091133C9091143C01968093DC
:10035000133C9093143C8091133C9091143C8097F3
:100360000CF467CF8091003C9091013CA091023C3D
:10037000B091033C880F991FAA1FBB1F8093003CBC
:100380009093013CA093023CB093033C08951092DB
:100390000C3C10920D3C10920E3C10920F3C0895B4
:1003A00088ED84BFE0E6F0E0128284BF118284BF52
:1003B00081E08283E0E6F4E082E08083148279DEEB
:1003C00083E080931301FFCF1F920F920FB60F921D
:1003D00011242F933F934F935F936F937F938F934A
:1003E0009F93AF93BF93EF93FF9382E08093163C6C
:1003F000B0DEFF91EF91BF91AF919F918F917F916F
:100400006F915F914F913F912F910F900FBE0F9081
:100410001F9018951F920F920FB60F9211248F9371
:100420009F93AF93BF9381E08093430180910A3CF7
:1004300090910B3C019799F480910C3C90910D3C6C
:10044000A0910E3CB0910F3C0196A11DB11D80936F
:100450000C3C90930D3CA0930E3CB0930F3C8091CC
:10046000083C9091093C019791F48091063C909151
:10047000073C01968093063C9093073C8091043C96
:100480009091053C01968093043C9093053CBF916C
:10049000AF919F918F910F900FBE0F901F90189565
:1004A00009D0A59F900DB49F900DA49F800D911D24
:1004B00011240895A29FB001B39FC001A39F01D052
:1004C000B29F700D811D1124911D0895F894FFCFE6
:00000001FF
